:1010000000000420751300005D130000E566000079
:10101000611300006313000065130000000000006E
:10102000000000000000000000000000315202003B
:101030006913000000000000555202006D1300000B
:101040000DC200006F1300001DC20000212401002A
:10105000392401006F13000069BC00003D0F01003E
:10106000DD0B0100F50B01000D0C0100C96600004D
:101070006F1300006F1300006F1300006F13000068
:1010800071290100715702006F1300006F130000F7
:101090006F1300006F1300006F1300006F13000048
:1010A0006F1300006F1300006F1300006F13000038
:1010B0006F1300006F13000000000000000000002C
:1010C0006F1300006F1300006F130000452D010027
:1010D0006F1300006F1300006F13000039F300005E
:1010E0006F13000031D000006F13000000000000FB
:1010F000000000006F130000000000006F130000EC
:1011000000000000000000000000000000000000DF
:1011100000000000000000000000000000000000CF
:1011200000000000000000000000000000000000BF
:1011300000000000000000000000000000000000AF
:10114000000000000000000000000000000000009F
:10115000000000000000000000000000000000008F
:10116000000000000000000000000000000000007F
:10117000000000000000000000000000000000006F
:10118000000000000000000000000000000000005F
:10119000000000000000000000000000000000004F
:1011A000000000000000000000000000000000003F
:1011B000000000000000000000000000000000002F
:1011C000000000000000000000000000000000001F
:1011D000000000000000000000000000000000000F
:1011E00000000000000000000000000000000000FF
:1011F00000000000000000000000000000000000EF
:10120000354936480A1A02D0072291438D4634499F
:1012100034480A1A06D00722914381F30988022232
:1012200082F3148830483149314A00F044F831489B
:101230003149324A00F03FF831483249324A00F031
:101240003AF832483249334A00F035F832483349E7
:10125000334A00F030F833483349344A00F02BF871
:1012600033483449344A00F026F8344834490022DF
:1012700000F02CF833483449002200F027F83348B6
:101280003349091A082902DB002202604160314A11
:1012900090471F481F49884205D00268043003B4B4
:1012A000904703BCF7E700208646EC46002000216B
:1012B000294A9047FEE7884207D0521A05D00378A2
:1012C00001300B700131013AF9D17047884202D0E8
:1012D00002700130FAE770470000042000E00320AC
:1012E000000004200000042038D303000800002080
:1012F000D0010020D0130000D0130000F48B0200B6
:1013000038D303000800002008000020F48B0200FE
:10131000F48B0200F48B0200F48B0200F48B0200C9
:10132000F48B0200F48B0200F48B020038D303002C
:1013300000D50300D0010020D0010020D001002002
:101340009C4601209C460120A4460120A446012081
:10135000A46601209D13000009460100FEE7FEE798
:10136000FEE7FEE7FEE7FEE7FEE7FEE7FEE7FEE755
:1013700000F002B8FFF7FCBF0F484FF007018843A9
:1013800085460E4880470E48016841F470010160AF
:10139000BFF34F8FBFF36F8FFFF732BF09480A4982
:1013A0000A4A884207D0521A05D0037801300B70E0
:1013B0000131013AF9D1704700000420592D020093
:1013C00088ED00E0F48B02000800002008000020F7
:1013D000004870479446012086B003900291019224
:1013E00001238DF817309DF81730204A039B1360B6
:1013F0001E4A029B53601D4A019B9360039B44F26B
:101400000102934212D0039B44F20202934220D184
:10141000019B164AD360154BDB681B68134A936126
:10142000124BDB685B68114AD36112E0019B0F4AE3
:1014300013610E4B1B699B680C4A53610B4B1B6974
:101440001B680A4A9361094B1B695B68074AD361B1
:1014500000BF72B600BF00BF9DF81730DBB2002B93
:10146000FAD162B600BF00BF06B07047D0010020BD
:1014700000B583B002900091019244F201007146E0
:101480006A4600F003F803B000BD00BF10B588B095
:1014900005900491039272B600BF059B44F20102CD
:1014A00093420FD0059B44F20202934221D1039B49
:1014B0000793079B5968079B1B681A4615481CF041
:1014C00099FB17E0039B0693069B9C68069B9B6811
:1014D000184606F003F9069B5968069B1B68049A98
:1014E000019200930B46024621460B481CF082FBFA
:1014F00000E000BF094B1B6803F00103002B00D084
:1015000000BE039A04990598FFF766FF00BF08B074
:1015100010BD00BFF48B0200108C0200F0ED00E063
:10152000024BD3F88034DBB218467047007002409B
:10153000024BD3F88434DBB2184670470070024087
:1015400008B50DF0FFFF0023184608BD00B585B0B3
:1015500003468DF807300B468DF8063013468DF89C
:1015600005309DF8073003F01F029DF806305B013F
:1015700003F060031A439DF80530DB01DBB213432F
:101580000393039BFF2B04D905494FF4AC7005F07E
:101590000DF9039BDBB2184605B05DF804FB00BFF4
:1015A000388C020082B00190019B1B7A184602B071
:1015B0007047000000B585B001900B468DF80330F0
:1015C000019B002B04D10F494FF4887005F0EEF811
:1015D0000198FFF7E7FF03461A469DF80330934250
:1015E00001D3002309E0019B093303939DF80320F5
:1015F00013465B001344039A1344184605B05DF884
:1016000004FB00BFA48C020082B00190019B1B78F8
:10161000184602B0704782B00190019B5B78184673
:1016200002B0704700B585B001900B468DF80330CD
:10163000019B002B04D10D4940F2431005F0B6F890
:10164000019B5B789DF803209A4201D3002309E0B7
:10165000019B9B781A46019B134403939DF803302A
:10166000039A1344184605B05DF804FBA48C0200ED
:1016700082B00190019B1B78184602B0704782B07F
:101680000190019B1B68184602B0704700B583B0FB
:101690000190019B002B04D1064940F2432005F044
:1016A00085F80198FFF7EBFF03461B68184603B067
:1016B0005DF804FB148D020000B583B00190019B1E
:1016C000002B04D1064940F25F2005F06FF8019825
:1016D000FFF7D5FF03465B68184603B05DF804FBCF
:1016E000148D020000B583B00190019B002B04D142
:1016F000064940F27B2005F059F80198FFF7BFFF3B
:1017000003465B68184603B05DF804FB148D0200C5
:10171000014B1846704700BF088F02004FF080430E
:10172000D3F838341846704708B5FFF7F7FF03467B
:1017300003F00103002B14BF01230023DBB2184682
:1017400008BD08B5FFF7EAFF034603F00203002BCC
:1017500014BF01230023DBB2184608BD00B583B0D7
:1017600001900091019B002B04D1114940F20F1010
:1017700005F01CF8019B5B68002B04D10C494FF469
:10178000887005F013F8019B5B681B68002B04D17F
:10179000074940F2111005F009F8019B5B681B68CE
:1017A0000099019898470346184603B05DF804FB7A
:1017B000788D020000B583B001900091019B002B51
:1017C00004D1114940F2191004F0F0FF019B1B688D
:1017D000002B04D10C494FF48D7004F0E7FF019BFE
:1017E0001B689B68002B04D1074940F21B1004F0D2
:1017F000DDFF019B1B689B68009A52881046984742
:1018000000BF03B05DF804FB788D020000B583B023
:1018100001900B468DF80330074B1B68002B06D058
:10182000054B1B689DF8032011460198984700BF9F
:1018300003B05DF804FB00BFB003002000B583B027
:1018400003468DF80730074B5B68002B05D0054B2E
:101850005B689DF807201046984700BF03B05DF80D
:1018600004FB00BFB003002010B58EB003900193BD
:101870000B468DF80B3013468DF80A300023099380
:1018800000230D9302E00D9B01330D93039B5B68D6
:101890005C6809A8012300220399A0470346002B96
:1018A000F1D100238DF8233000230C9300238DF811
:1018B0002F30002306934FE0039B5B685C680DF1BB
:1018C000230206A801230399A047039B5B685C6879
:1018D0000DF1170206A801230399A0479DF81730C0
:1018E0009DF80B209A4227D19DF82F209DF80A30B1
:1018F0009A421CD19DF823301A46109B1A60019B16
:101900005A1C01929DF823201A70019B5A1C0192C7
:101910009DF80B201A70039B5B685C689DF8233070
:10192000023B06A8019A0399A047002319E09DF8FD
:101930002F3001338DF82F30039B5B685C689DF876
:101940002330023B06A800220399A0479DF82330CC
:101950001A460C9B13440C930C9A0D9B9A42ABD3E2
:10196000052318460EB010BD00B585B003468DF8AE
:1019700007309DF90730002B14DA9DF8073003F08B
:101980000F038DF80E309DF80E30082B04D9114945
:101990004FF4CC7004F00AFF9DF80E30DB000E4AC5
:1019A000134413E09DF8073003F00F038DF80F3058
:1019B0009DF80F30082B04D906494FF4CF7004F07E
:1019C000F5FE9DF80F30DB00044A1344184605B0BD
:1019D0005DF804FB788D02001003002058030020FE
:1019E00000B583B003468DF807309DF807301846E0
:1019F000FFF7BAFF03461B68184603B05DF804FB07
:101A000000B585B0034600918DF807309DF807308A
:101A10001846FFF7A9FF0390039B009A1A60009BEA
:101A2000002B10D19DF80730002B03D09DF8073014
:101A3000802B04D108494FF4E17004F0B7FE039BFA
:101A400000225A6004E0009B5B681A68039B5A609E
:101A500000BF05B05DF804FB788D020000B583B0CF
:101A60000190064B5B68054A126801991046984739
:101A70000346184603B05DF804FB00BF580300207E
:101A800000B589B00190019B0793079B1B78052B3C
:101A90001AD1FFF74DFD03468DF81730FFF740FDD3
:101AA00003468DF81630002200210020FFF74EFD7E
:101AB00003461A469DF81630934205D19DF817301B
:101AC000052B01D1334B0793079B1B78002B27D1A4
:101AD00000F08AFF069007E007990698FFF76AFE74
:101AE0000698FFF7FFFD0690069B002BF4D100201F
:101AF00004F086FD284B1B68002B03D1079B5A88F6
:101B0000264B1A800121244804F097FF002004F09E
:101B10008BFD01210798FFF779FE1F4B1B6835E00D
:101B20001F4A02AB1946104604F0FEFE0490049BC7
:101B3000002B2BD0049A079B1B681360002004F035
:101B40005FFD164B1A88144B1B689BB2D31A9BB2CD
:101B500001339AB2049BDA8000210F4804F03EFF63
:101B600003469AB2049B9A80002004F05DFD0C4A63
:101B700002AB1946104604F0F0FE03468DF80F3014
:101B80009DF80F3019460798FFF740FE09B05DF841
:101B900004FB00BFE88D0200080300200C030020B6
:101BA000F802002000B583B003468DF807309DF899
:101BB0000730022B0ED0022B10DC002B02D0012BA1
:101BC00004D00BE00A48FFF75BFF0DE00948FFF780
:101BD00057FF09E00848FFF753FF05E0074940F2C7
:101BE000622004F0E3FD00BF00BF03B05DF804FB1A
:101BF000DC8D0200E08D0200E48D0200788D020091
:101C000000B583B001900198FFF73AFF00BF03B021
:101C10005DF804FB00B583B003468DF807309DF8EE
:101C20000730002B04D0064940F27B2004F0BEFDB3
:101C30000448FFF725FF00BF03B05DF804FB00BFB9
:101C4000788D0200EC8D020082B003468DF80730DB
:101C50009DF80730082B27D801A252F823F000BFC7
:101C6000851C0000891C00008D1C0000911C0000D8
:101C7000951C0000991C00009D1C0000A11C000088
:101C8000A51C0000002310E000230EE001230CE05F
:101C900000230AE0002308E0012306E0012304E01A
:101CA000012302E0012300E00023184602B0704740
:101CB00082B003468DF807309DF80730082B27D8EF
:101CC00001A252F823F000BFED1C0000F11C00003F
:101CD000F51C0000F91C0000FD1C0000011D0000A7
:101CE000051D0000091D00000D1D0000002310E06F
:101CF00000230EE001230CE000230AE0002308E0AB
:101D0000002306E0002304E0002302E0012300E0BA
:101D10000023184602B07047014B1B7818467047E5
:101D2000AC03002010B582B003468DF807309DF853
:101D300007301846FFF788FF03461C461C4B1B78EC
:101D40001846FFF781FF03469C420DD09DF80730EF
:101D50001846FFF779FF0346002B03D0154808F01B
:101D600043FA01E008F090FA9DF807301846FFF7B3
:101D70009FFF03461C460E4B1B781846FFF798FF43
:101D800003469C420CD09DF807301846FFF790FFA1
:101D90000346002B02D00DF05DFD01E00DF050FD7B
:101DA000034A9DF80730137000BF02B010BD00BF9A
:101DB000AC0300200800002000B587B001900B465E
:101DC0008DF8033013468DF802300198FFF7EAFBD7
:101DD00003461A469DF80330934204D91B4940F24A
:101DE000F92004F0E3FC9DF80230002B01D007231A
:101DF00028E09DF8033019460198FFF7DBFB0490BB
:101E00000498FFF708FC03468DF80F3000238DF887
:101E1000173010E09DF8173019460498FFF702FCC0
:101E20000290029B1B78184600F0A6FD9DF8173023
:101E300001338DF817309DF817209DF80F309A4226
:101E4000E8D30023184607B05DF804FB788D020044
:101E500000B587B001900B468DF803300198FFF76D
:101E6000A1FB03461A469DF80330934204D9194951
:101E70004FF4467004F09AFC9DF80330194601981F
:101E8000FFF798FB04900498FFF7C5FB03468DF815
:101E90000F3000238DF8173010E09DF817301946E9
:101EA0000498FFF7BFFB0290029B1B78184600F0D6
:101EB00081FD9DF8173001338DF817309DF81720FC
:101EC0009DF80F309A42E8D300BF00BF07B05DF81D
:101ED00004FB00BF788D020000B589B0019008F0C6
:101EE000B9F80346002B04D1484940F2313004F0E0
:101EF0005DFC474808234FF48472464904F0E1FC36
:101F00000690069B002B01D003237BE042480DF096
:101F100095FA0690069B002B01D0069B72E03F4B82
:101F200000221A703E4B00221A603E4B00221A60BB
:101F3000482200213C4825F03AFD482200213B4838
:101F400025F035FD019B002B09D1394B00221A6089
:101F5000374B00225A60364B00221A7204E0344B91
:101F6000019A07CA83E80700002008F029FA0690C2
:101F7000069B002B08D0069B852B05D0234A40F2F8
:101F80005F310698FFF774FAFFF7C2FB0590002354
:101F90008DF81F3018E000238DF81E3007E00398FD
:101FA000FFF766FB034605991846FFF729FD9DF8E4
:101FB0001E305A1C8DF81E2019460498FFF732FB7C
:101FC0000390039B002BEAD19DF81F305A1C8DF81B
:101FD0001F2019460598FFF7EDFA0490049B002B8B
:101FE000D9D10B238DF8083002AB19460598FFF7BD
:101FF000B5FB0690069B002B03D0FFF7A1FA069BCA
:1020000000E00023184609B05DF804FB788D02005B
:10201000F8020020F0010020011C0000AC030020A9
:10202000A0030020A4030020100300205803002078
:10203000B003002000B587B008F0F3F9FFF780FA8D
:102040000490274B05930BE0059B1B681846FFF790
:1020500016FB03460193059B00221A60019B059322
:10206000059B1B68002BEFD11E4B05930CE0059BD5
:102070001B681846FFF703FB034604330293059BD6
:1020800000221A60029B0593059B1B68002BEED172
:10209000154B05930CE0059B1B681846FFF7EFFAFC
:1020A000034604330393059B00221A60039B0593A8
:1020B000059B1B68002BEED1482200210B4825F020
:1020C00076FC482200210A4825F071FC0C220021F0
:1020D000084825F06CFC049B184607B05DF804FB2B
:1020E000A0030020A4030020A80300201003002068
:1020F00058030020B003002000B583B00DF01AFB98
:10210000034683F00103DBB2002B04D10DF01EFB6C
:102110000346002B01D008230FE00A4808F072F9AB
:102120000190019B0093009B002B05D0064A40F2D2
:10213000C2310098FFF79CF90023184603B05DF800
:1021400004FB00BFF08D0200788D020008B50DF091
:1021500011FA00BF08BD08B50DF074FA00BF08BD44
:1021600008B50DF0F3FA0346002B0DD10D494FF4DD
:10217000767004F01BFB07E0FFF7D6FA034683F006
:102180000103DBB2002B0BD1FFF7DBFA034683F030
:102190000103DBB2002BEFD10348FFF771FC00E035
:1021A00000BF08BD788D0200F48D020000B583B039
:1021B00082238DF8043001AB1846FFF761FC00BFA5
:1021C00003B05DF804FB000000B587B0019004F097
:1021D0005EFA0346052B04D8DD4940F22C4004F09A
:1021E000E5FA019B1B78852B00F26A8201A252F866
:1021F00023F000BF0D25000069250000F725000031
:102200008B250000BB2500001F2600002F260000A4
:10221000C126000097260000A5260000B326000076
:10222000C1260000C1260000C1260000C126000012
:1022300011260000C1260000C1260000C1260000B2
:10224000C1260000C1260000C1260000C1260000F2
:10225000C1260000C1260000C1260000C1260000E2
:10226000C1260000C1260000C1260000C1260000D2
:10227000C1260000C1260000C1260000C1260000C2
:10228000C1260000C1260000C1260000C1260000B2
:10229000C1260000C1260000C1260000C1260000A2
:1022A000C1260000C1260000C1260000C126000092
:1022B000C1260000C1260000C1260000C126000082
:1022C000C1260000C1260000C1260000C126000072
:1022D000C1260000C1260000C1260000C126000062
:1022E000C1260000C1260000C1260000C126000052
:1022F000C1260000C1260000C1260000C126000042
:10230000C1260000C1260000C1260000C126000031
:10231000C1260000C1260000C1260000C126000021
:10232000C1260000C1260000C1260000C126000011
:10233000C1260000C1260000C1260000C126000001
:10234000C1260000C1260000C1260000C1260000F1
:10235000C1260000C1260000C1260000C1260000E1
:10236000C1260000C1260000C1260000C1260000D1
:10237000C1260000C1260000C1260000C1260000C1
:10238000C1260000C1260000C1260000C1260000B1
:10239000C1260000C1260000C1260000C1260000A1
:1023A000C1260000C1260000C1260000C126000091
:1023B000C1260000C1260000C1260000C126000081
:1023C000C1260000C1260000C1260000C126000071
:1023D000C1260000C1260000C1260000C126000061
:1023E000C1260000C1260000C1260000C126000051
:1023F000C12600008B2400000D24000051240000A1
:10240000BF240000DF240000272600005148FFF70A
:1024100025FB504800F072FB0D20FFF70FFA00F08B
:1024200091FC01F06AFB4C4B1B68002B03D14B4B1A
:102430001B7A002B01D0012300E0002303F00103ED
:10244000DBB218460DF01EF90120FFF76BFC44E1EA
:1024500000F078FC0DF04AF90020FFF763FC4048DB
:1024600000F04CFB3E48FFF7F9FA0E20FFF7E6F9C3
:10247000FFF752FC03461846FFF7E6FB0346002B26
:1024800000F0248107F000FF20E1FFF745FC034640
:10249000072B0ED0072B10DC052B02D0062B04D007
:1024A0000BE00220FFF73EFC08E00820FFF73AFCB3
:1024B00004E00220FFF736FC00E000BF0DE1FFF76B
:1024C0002BFC0346032B40F003810DF04BF9034630
:1024D000002B00F0FD800420FFF724FCF8E0FFF75C
:1024E0001BFC0346032B07D10DF03CF90346002BE0
:1024F00002D00420FFF716FC0DF064F90346002B10
:1025000000F0E8800620FFF70DFCE3E0FFF704FC95
:102510000346032B04D0FFF7FFFB0346082B02D131
:102520001048FFF751FE0020FFF788F900F056FA37
:10253000059008E001990598FFF710F903900598B8
:10254000FFF7BAF80590059B002BF3D1C5E000BF5B
:10255000788D0200F88D0200A4030020B003002053
:10256000FC8D0200008E020000F0ECFB01F0BCFAD2
:102570000220FFF7D7FB0120FFF760F90198FFF772
:102580006DFA019800F0BAFAA7E0FFF7C5FB034621
:10259000082B05D10220FFF7C5FB0DF065F902E01D
:1025A0000520FFF7BFFB0320FFF748F90198FFF76D
:1025B00055FA019800F0A2FA8FE00320FFF73EF9E8
:1025C0004848FFF74BFA474800F098FAFFF7A4FB9A
:1025D0000346062B02D0082B04D007E00720FFF7A4
:1025E000A1FB07E00220FFF79DFB03E00220FFF7BD
:1025F00099FB72E071E00320FFF794FB0220FFF7E4
:102600001DF9019800F07AFA0198FFF727FA64E0C3
:102610000F20FFF713F9019800F070FA5DE00198C0
:10262000FFF71CFA59E00198FFF718FA55E0019BF3
:102630009B781846FFF798F90490049B1B68002BC1
:1026400004D1294940F2025004F0B0F8049B5B68C1
:10265000002B04D1244940F2035004F0A7F8049B56
:102660005B68049A12680199104698470346002B4C
:1026700032D0019B9B7803F00F03002B2CD0019BE1
:102680009B7803F00803002B26D1019B9B7818460A
:102690000DF051FB20E00820FFF7D0F8019800F082
:1026A0002DFA1AE00920FFF7C9F8019800F026FA80
:1026B00013E00A20FFF7C2F8019800F01FFA0CE0BF
:1026C000094940F2265004F071F806E000BF04E02A
:1026D00000BF02E000BF00E000BF00BF07B05DF830
:1026E00004FB00BF048E0200788D020000B583B0A9
:1026F00000230193354B1B68002B07D1344B354920
:10270000184604F03EF90346304A13602F4B1B680D
:10271000002B32D02D4B1B689B88002B1ED02B4BDF
:102720001B68DB88B3F5006F03D3284B1B680022BE
:10273000DA80264B1B68DA88511C89B2D98013468F
:10274000ADF80630214B1B689A88013A92B29A8004
:1027500001AB1846FFF738FD012333E01B4B1B6824
:102760001846FFF731FD1A4B1A49184604F022F9B2
:10277000164B00221A60012324E0174B1B68002B24
:102780001FD0002003F03CFF144B1B88B3F5006FF3
:1027900002D3124B00221A80104B1B885A1C91B294
:1027A0000E4A1180ADF8063001210B4804F05DF9A6
:1027B000002003F039FF01AB1846FFF705FD0123A8
:1027C00000E00023184603B05DF804FBBC030020C2
:1027D000F8020020C0030020080300200C030020A2
:1027E00000B589B00190019B002B04D15A4940F2F9
:1027F0006A5003F0DBFF019B5B68002B04D1564954
:1028000040F26B5003F0D2FF019B5B681B68002B0A
:1028100004D1514940F26C5003F0C8FF0198FEF713
:102820002EFF03461B68002B04D04B4940F26D502D
:1028300003F0BCFF0CF08AFF034683F00103DBB218
:10284000002B04D00CF076FF0346002B04D1424944
:1028500040F2715003F0AAFF00238DF81F301CE0F6
:1028600000238DF81E300BE00398FEF701FF0346AE
:102870001846FFF7B5F80346002B01D0112367E097
:102880009DF81E305A1C8DF81E2019460598FEF73B
:10289000C9FE0390039B002BE6D19DF81F305A1C04
:1028A0008DF81F2019460198FEF784FE0590059BC0
:1028B000002BD5D100238DF81F3018E000238DF8B0
:1028C0001D3007E00498FEF7D3FE03460199184631
:1028D000FFF796F89DF81D305A1C8DF81D201946FB
:1028E0000598FEF79FFE0490049B002BEAD19DF80B
:1028F0001F305A1C8DF81F2019460198FEF75AFE0A
:102900000590059B002BD9D1144B069310E0069B34
:102910001B68019A9A4204D10F4940F2975003F084
:1029200045FF069B1B681846FEF7A9FE0346069363
:10293000069B1B68002BEAD1069B019A1A600B23A9
:102940008DF8083002AB19460198FEF707FF0346E1
:10295000184609B05DF804FB788D0200A003002042
:10296000044B1B78002B14BF01230023DBB2184655
:10297000704700BFAD03002000B583B003468DF85B
:1029800007309DF8073003F00803002B09D19DF8AC
:10299000073018460DF017FA9DF8073018460DF06D
:1029A000DCF99DF8073018460CF0DCFF00BF03B0DF
:1029B0005DF804FB00B583B003468DF807309DF841
:1029C000073018460DF01EF800BF03B05DF804FB99
:1029D000014B1B6818467047A0030020014B1B6881
:1029E00018467047A4030020014B1B681846704727
:1029F000A803002000B587B0034600918DF807308A
:102A0000FFF7E6FF059031E00598FEF7CBFD0346A2
:102A10008DF8123000238DF813301DE09DF813302F
:102A200019460598FEF7C6FD03900398FEF7ECFDE6
:102A300003461A469DF80730934208D1009B002BAD
:102A400003D0009B9DF813201A70059B12E09DF89F
:102A5000133001338DF813309DF813209DF8123098
:102A60009A42DBD30598FEF711FE0590059B002BDB
:102A7000CAD10023184607B05DF804FB00B585B045
:102A800003900B4601928DF80B3001990398FEF7E5
:102A900065FE0346184605B05DF804FB00B585B039
:102AA000034600918DF807309DF90730002B05DAB9
:102AB0009DF8073003F00F03082B09DD9DF907305F
:102AC000002B16DB9DF8073003F00F03082B10DCFA
:102AD0009DF807301846FEF747FF03461B6803932F
:102AE000039B002B05D000990398FEF737FE0346A1
:102AF00000E01023184605B05DF804FB00B585B072
:102B00000190FFF765FF039007E001990398FEF736
:102B100025FE0398FEF7BAFD0390039B002BF4D12A
:102B200000BF00BF05B05DF804FB00B585B00190A3
:102B300006230293FFF74CFF03900BE001990398E3
:102B4000FEF70CFE0290029B062B07D10398FEF7BE
:102B50009DFD0390039B002BF0D100E000BF029B82
:102B6000184605B05DF804FB00B583B0034600913C
:102B70008DF807309DF8073018460CF0E0FE03464C
:102B800083F00103DBB2002B01D008230CE0084BDB
:102B90001B78022B01D0082306E09DF8073000992E
:102BA00018460CF04FFF0346184603B05DF804FBCF
:102BB000AC03002000B583B0034600918DF80730C8
:102BC0009DF8073018460CF0BAFE034683F0010367
:102BD000DBB2002B01D008230CE0084B1B78022B42
:102BE00001D0082306E09DF80730009918460CF044
:102BF000F7FF0346184603B05DF804FBAC03002062
:102C000000B585B001900B468DF8033013468DF862
:102C1000023006230393019B5B689B68002B09D05D
:102C2000019B5B689B689DF802209DF8031001984A
:102C300098470390039B062B08D19DF802209DF82E
:102C4000033019460198FFF7B7F80390039B184625
:102C500005B05DF804FB00B583B001900B468DF81C
:102C60000330019B5B68DB68002B07D0019B5B682E
:102C7000DB689DF803201146019898479DF80330C2
:102C800019460198FFF7E4F800BF03B05DF804FBB4
:102C900000B585B001900B468DF8033000238DF808
:102CA0000F30019B5B681B69002B0AD0019B5B689E
:102CB0001B699DF8032011460198984703468DF83B
:102CC0000F309DF80F30184605B05DF804FB00008A
:102CD00000B585B0FFF77CFE039028E00398FEF76F
:102CE00061FC03468DF80A3000238DF80B3014E0A8
:102CF0009DF80B30002219460398FFF781FF0190E1
:102D0000019B002B04D00E4940F26A7003F04EFD87
:102D10009DF80B3001338DF80B309DF80B209DF89A
:102D20000A309A42E4D30398FEF7B0FC0390039B69
:102D3000002BD3D100BF00BF05B05DF804FB00BF7E
:102D4000788D020000B583B0FFF742FE01901EE0CF
:102D50000198FEF727FC03468DF8023000238DF81A
:102D600003300AE09DF8033019460198FFF773FF1E
:102D70009DF8033001338DF803309DF803209DF852
:102D800002309A42EED30198FEF780FC0190019B3D
:102D9000002BDDD100BF00BF03B05DF804FB82B0A3
:102DA0000190019B03F1804303F51C33184602B0E8
:102DB000704700B583B003468DF807309DF80730A3
:102DC0001846FFF7ECFF034601221A60BFF36F8F2E
:102DD00000BFBFF34F8F00BF00BF03B05DF804FB1F
:102DE00082B003468DF807309DF8073003F01F03CB
:102DF000DBB2184602B0704782B003468DF8073048
:102E00009DF807305B0903F00303DBB2184602B0FC
:102E1000704782B003468DF807309DF80730DB0914
:102E2000DBB2184602B0704782B00190019B1B7A5A
:102E3000184602B0704782B00190019B1B6818468B
:102E400002B0704700B583B00190019B002B04D104
:102E5000064940F2432003F0A9FC0198FFF7EBFF7D
:102E600003461B68184603B05DF804FB088E020099
:102E700082B00190019B1B78184602B07047000099
:102E800000B583B003468DF807300E4B1B789DF8D4
:102E900007209A4211D00B4A9DF8073013709DF815
:102EA0000730052B06D0084B1B7823F00203DAB25B
:102EB000054B1A700548FFF787F900BF03B05DF8AE
:102EC00004FB00BFC4030020C5030020288F0200BC
:102ED00008B5074B1B78012B03D0054B1B78052B3E
:102EE00002D10020FFF7CCFF014B1B78184608BD2C
:102EF000C40300204FF08043D3F8383403F00103BB
:102F0000002B14BF01230023DBB2184670470000DA
:102F1000024B00221A6000BF704700BF0C04002063
:102F200000B585B003468DF807300B4B1B68039343
:102F3000039B002B0AD0FFF7EBFF074B59689DF866
:102F40000720039B10469847034600E00E231846CF
:102F500005B05DF804FB00BF0C040020044B1B68A7
:102F6000002B14BF01230023DBB21846704700BFBB
:102F70000C04002082B0034600918DF80730002336
:102F8000184602B07047000010B58EB00390029151
:102F9000019201238DF83730029B0993099B5B68EE
:102FA000002B15D1099B1B681846FFF74BFF034602
:102FB000002B0DD1099B9B68002B09D100238DF8B4
:102FC0003730039B00221A60039B00225A60AAE05C
:102FD000019B402B04D9564940F2991003F0E6FBBF
:102FE00000230C9300238DF82B300CF065FE089025
:102FF000099BDB68019A934228BF13460B9386E036
:10300000099B9B680B9A934228BF13460793099B21
:103010005B68002B0CD0089A0C9BD018099B5B684E
:10302000079A194624F09AFC099B00225A6014E082
:10303000099B9B68002B10D0099B1B685B685C6830
:10304000099B03F11000099B1968089A0C9B1A440C
:10305000079BA04701238DF82B30099B9A68079B9B
:10306000D21A099B9A60099BDA68079BD21A099BBE
:10307000DA600B9A079BD31A0B930C9A079B1344A5
:103080000C93099B9B68002B0BD19DF82B30002BD8
:1030900007D0099B1B681846FFF7D4FE0246099B20
:1030A0001A60099BDB68002B03D100238DF83730B1
:1030B0002DE0099B9B68002B29D1099B1B68002BE5
:1030C0000DD1099B00225A600C9B002B24D00C9A36
:1030D000019B9A4220D200238DF837301CE0002358
:1030E000059304E0099B9B685A1C099B9A60099B05
:1030F0001B685B685C68099B196805A801230022AE
:10310000A0470346002BEDD1099B00221A610B9BBF
:10311000002B7FF475AF00E000BF039B089A1A6094
:10312000039B0C9A5A609DF8373018460EB010BDBC
:103130006C8E020000B587B00190019B5B78184649
:10314000FFF75AFE0346002B01D0062383E0019BC4
:103150005B798DF81730FFF7BBFE03468DF816300C
:10316000019B9B78032B29D0032B6EDC002B02D014
:10317000012B44D069E09DF81630052B05D09DF851
:10318000173003F00F03002B16D103AB184600F0E5
:1031900029FD04909DF8173018460CF001FE0346F7
:1031A0009AB2049B1A80019B0133022204991846AB
:1031B00000F0ACFC03464EE008234CE09DF81730CD
:1031C00003F00803002B42D1019BB3F803309BB2FC
:1031D000002B3CD19DF8173003F00F03002B01D1D9
:1031E000062338E09DF81630052B06D19DF81730E0
:1031F00018460CF0A0FD00232DE008232BE09DF8DD
:10320000173003F00803002B23D1019BB3F80330E0
:103210009BB2002B1DD19DF8173003F00F03002B3C
:1032200001D1062317E09DF81630052B0BD19DF830
:10323000173018460CF0C7FD9DF8173018460CF0F3
:103240008CFD002307E0082305E000BF02E000BF7B
:1032500000E000BF0623184607B05DF804FB00B588
:103260008BB003900B4601928DF80B30019B5B787D
:103270001846FFF7C1FD0346002B01D006236AE084
:10328000FFF726FE03468DF82730019B5B78184632
:10329000FFF7BFFD0346012B3BD1019B9B78002B21
:1032A00002D00A2B17D055E09DF82730052B01D00E
:1032B000082350E006AB184600F094FC0790079BEB
:1032C00000221A80019B013302220799184600F060
:1032D0001DFC03463FE09DF82730052B01D0082355
:1032E00039E005AB184600F07DFC08909DF80B30E6
:1032F00019460398FFF7CCFC03461A46089B1A7040
:10330000019B013301220899184600F0FFFB034698
:1033100021E0019B9B780B2B1BD19DF82730052BBF
:1033200001D0082317E0019BB3F803309BB2FF2BB9
:1033300001D907230FE0019BDB788DF826309DF83B
:1033400026209DF80B3019460398FFF759FC0346D9
:1033500001E000BF062318460BB05DF804FB000037
:1033600000B585B00190009102AB184600F03AFC20
:103370000390029B012B04D8184940F2A12003F0CE
:1033800015FA02220021039824F011FBC02303F058
:103390004003002B06D0039B1B7843F00103DAB2F5
:1033A000039B1A700E4B1B785B08DBB203F0010322
:1033B000002B06D0039B1B7843F00203DAB2039B79
:1033C0001A70009B013302220399184600F09EFBFD
:1033D0000346184605B05DF804FB00BF6C8E020082
:1033E000C503002010B58EB001900091009B1B79A1
:1033F000032B00F0BC80032B00F3E780012B02D0ED
:10340000022B11D0E1E0009BB3F807309BB2002BF8
:1034100001D10023DBE0009B013312226D491846E5
:1034200000F074FB0346D2E0009BB3F807309BB278
:10343000002B01D10023CAE0009BB3F807309BB2F8
:10344000092B28BF09239BB2069309230D93002360
:103450008DF83330FFF7BCFA0B9037E00B9B5B68BD
:10346000002B04D15C4940F2D32003F09FF90B9B61
:103470005B685B68002B04D157494FF4357003F04B
:1034800095F900230A930023029302E00A9B01337B
:103490000A930B9B5B685C6802A8012300220B99CE
:1034A000A0470346002BF1D10D9A0A9B13440D93BC
:1034B0000B98FFF7B9FC03461A469DF833301344C6
:1034C0008DF833300B98FFF7BDFC0B900B9B002B56
:1034D000C4D104AB184600F085FB0590049B069A06
:1034E0009A4204D93C4940F2E92003F05FF9069A78
:1034F0003A49059824F032FA059B9DF833201A7159
:103500000D9B9AB2059B5A80FFF72AFA0346002BBF
:1035100006D0059BDB7943F02003DAB2059BDA7114
:10352000FFF756FA03462E4A13602D4A059B536057
:103530002B4A069B9360009BB3F807309BB21A4658
:10354000274BDA60002003F05BF826498020FFF764
:1035500031FB0990099B002B04D12349802000F006
:1035600023FB0990002003F05FF8099B2FE0009BEC
:10357000B3F807309BB2002B01D1002327E0009B5A
:10358000DB788DF82330009B5A799B791B0213431B
:10359000ADF82030BDF820209DF8233011461846A4
:1035A00002F092FF0790079B002B01D106230EE04B
:1035B000009B5C1C0798FFF75BFC03461A460799C3
:1035C000204600F0A3FA034601E000BF0623184698
:1035D0000EB010BDD48E02006C8E0200E88E020088
:1035E00020040020208F0200188F020000B587B051
:1035F0000190009103AB184600F0F4FA0590FFF734
:1036000067FC03468DF813309DF81330052B03D16A
:10361000059B01221A7009E09DF81330042B03D199
:10362000059B00221A7001E0062307E0009B01338E
:1036300001220599184600F069FA0346184607B0BA
:103640005DF804FB00B585B001900091FFF740FCE8
:1036500003468DF80F309DF80F30052B05D09DF8EF
:103660000F30042B01D0082316E0009BDB78002BE1
:1036700005D1FFF767FB0420FFF702FC0BE0009B7E
:10368000DB78012B05D1FFF723FB0520FFF7F8FBC3
:1036900001E0072300E00023184605B05DF804FBB5
:1036A00000B583B001900091019B002B04D15049DB
:1036B00040F26A3003F07AF8009B002B04D14C49A9
:1036C00040F26B3003F072F8009B5B781846FFF70E
:1036D00093FB0346002B01D0062385E0009B5B781B
:1036E0001846FFF796FB0346012B1FD1009B9B78E2
:1036F000082B12D0082B16DC002B02D0062B06D08C
:1037000011E000990198FFF72BFE03466CE0009949
:103710000198FFF767FE034666E000990198FFF7FE
:1037200065FF034660E000BF06235DE0009B9B78D9
:10373000013B082B52D801A252F823F09F3700001A
:10374000DD3700006D370000DD3700006137000015
:10375000DD370000DD370000DD370000D137000025
:10376000234940F28E3003F021F83CE0009BB3F88F
:1037700003309BB2012B33D1FFF7F2F8034683F0FD
:103780000103DBB2002B01D00F232DE0194B1B7876
:1037900043F00203DAB2174B1A70002324E0009BB7
:1037A000B3F803309BB2012B1CD1FFF7D9F80346C5
:1037B00083F00103DBB2002B01D00F2314E00D4B8B
:1037C0001B7823F00203DAB20A4B1A7000230BE0D5
:1037D00000990198FFF736FF034605E000BF02E0BD
:1037E00000BF00E000BF0623184603B05DF804FBED
:1037F0006C8E0200C503002000B58BB0019006233B
:10380000099305238DF8103004AB013318460CF0F2
:10381000E9FAFFF7A3FBFFF77BFB9DF81130184691
:10382000FFF7DEFA0346032B63D801A252F823F018
:10383000413800005F380000AD380000E738000074
:1038400004AB19460198FFF72BFF0990099B062B43
:1038500051D104AB1846FFF768F909904BE09DF889
:1038600015308DF822300DF10F029DF822301146EF
:103870001846FFF7BFF80790079B002B02D11023D3
:1038800009933AE09DF80F3004AA19460798FFF70C
:10389000F5F80990099B062B2FD19DF80F3004AA4B
:1038A00019460798FFF7DBFC099026E006230993E9
:1038B0009DF815308DF823309DF8233003F00F0369
:1038C000002B07D004AA9DF8233011461846FFF7B5
:1038D000E5F80990099B062B11D104AB1846FFF7B8
:1038E00029FC09900BE004AB1846FFF71EF909907C
:1038F00006E000BF04E000BF02E000BF00E000BF40
:10390000099B002B0FD1FFF729FB0346002B07D0A3
:103910000CF0A4FA0346002B07D10CF08DFA04E05A
:103920000CF090FA01E00CF093FA099B18460BB0EA
:103930005DF804FB00B585B0019000910623039368
:10394000009B1B780E2B25DC002B40F3BD80013B38
:103950000D2B00F2B98001A252F823F09B39000030
:10396000A3390000A9390000C93A0000EF3900006E
:10397000713A0000C93A0000C93A0000C93A000093
:10398000C93A0000F9390000133A0000333A000048
:10399000513A0000852B1DD096E00320FFF770FA06
:1039A00099E00023039396E04D4803F078F803462E
:1039B000002B02D05C20FFF7FCF9FFF789FA0346E1
:1039C000002B04D1474940F2444002F0EFFE0023AF
:1039D000039380E0FFF77CFA03468DF80B309DF8E7
:1039E0000B30032B72D10420FFF74AFA6EE00198E6
:1039F000FFF702FF03906EE0FFF76AFA0346002B21
:103A000004D038494FF48B6002F0D0FE00230393BA
:103A100061E0FFF75DFA0346012B04D0314940F223
:103A20005E4002F0C3FE0020FFF72AFA0023039352
:103A300051E0FFF75FFA0346002B03D00220FFF7A7
:103A40001FFA02E00120FFF71BFA0023039342E074
:103A5000FFF73EFA0346012B04D8224940F2724098
:103A600002F0A4FE0120FFF70BFA0023039332E0DB
:103A7000009BDB78032B2BD0009B9B78002B08D07E
:103A8000009B9B78802B04D016494FF4906002F085
:103A90008DFE009BDB781846FFF742FA0390039BEC
:103AA000002B0ED1FFF75AFA0346002B06D0009BDD
:103AB0009B78002B0ED10CF0BFF90BE00CF0C2F993
:103AC00008E00CF0C5F905E000BF04E000BF02E02B
:103AD00000BF00E000BF039B184605B05DF804FB83
:103AE000C80300206C8E020008B50020FEF744FFDA
:103AF0008020FEF741FF00BF08BD08B50020FEF79B
:103B000059FF8020FEF756FF00BF08BD00B58DB0FD
:103B1000039002910192039BDB889BB20A93019A66
:103B20000A9B934228BF13460993019A0A9B9A4223
:103B30000ED280200BF0F2FE03461A46019BB3FB27
:103B4000F2F101FB02F29B1A002B01D1012300E0EC
:103B500000238DF823309DF8233003F001038DF806
:103B60002330029B0593099B06939DF8233007930E
:103B7000002002F045FD05AB19468020FEF7F4FF5A
:103B80000B900B9B002B04D10649802000F00CF811
:103B90000B90002002F048FD0B9B18460DB05DF81D
:103BA00004FB00BF188F020000B583B003460091EC
:103BB0008DF807300CF052F903461A469DF807308D
:103BC000934201D0102306E0054B009A92E80300CF
:103BD00083E803000023184603B05DF804FB00BF30
:103BE0000C04002082B00190019B002B02D0019BAD
:103BF00040221A60014B184602B07047CC030020E7
:103C000082B001900091019BDAB2009B1A70019B77
:103C10001A0A009B0133D2B21A70019B1A0C009B46
:103C20000233D2B21A70019B1A0E009B0333D2B238
:103C30001A700423184602B0704782B00190019BAD
:103C40001B781B021AB2019B01331B781BB2134372
:103C50001BB29BB2184602B0704782B00190019B24
:103C60001B781A46019B01331B781B021A43019BE8
:103C700002331B781B041A43019B03331B781B067A
:103C80001343184602B0704782B00190019B1B7825
:103C90001A06019B01331B781B041A43019B023354
:103CA0001B781B021343019A033212781343184600
:103CB00002B0704784B001900091019B0393039B75
:103CC0001ABA009B1A600423184604B0704700001B
:103CD00000B585B00190019B002B0AD0074B43F043
:103CE00001030393019B9B010293039B0298984756
:103CF00000E000BF05B05DF804FB00BF309002009B
:103D000082B003468DF807309DF8073003F01F039B
:103D1000DBB2184602B0704782B003468DF8073018
:103D20009DF807305B0903F00303DBB2184602B0CD
:103D3000704782B003468DF807309DF80730DB09E5
:103D4000DBB2184602B0704782B00190019B1B7A2B
:103D5000184602B07047000000B585B001900B46D0
:103D60008DF80330019B002B04D10F494FF488706C
:103D700002F01CFD0198FFF7E7FF03461A469DF885
:103D80000330934201D3002309E0019B09330393DD
:103D90009DF8032013465B001344039A134418460E
:103DA00005B05DF804FB00BF2C8F020082B00190CB
:103DB000019B1B78184602B0704782B00190019BAE
:103DC0005B78184602B0704700B585B001900B468D
:103DD0008DF80330019B002B04D10D4940F24310B4
:103DE00002F0E4FC019B5B789DF803209A4201D32A
:103DF000002309E0019B9B781A46019B134403931F
:103E00009DF80330039A1344184605B05DF804FB8F
:103E10002C8F020082B00190019B1B78184602B0E3
:103E20007047000000B585B0039002910192039B9A
:103E30001B681B68002B03D10749F02002F0B6FC79
:103E4000039B1B681B68019A0299039898470346D5
:103E5000184605B05DF804FB648F020000B583B01E
:103E60000190019B1B685B68002B03D10649FD2074
:103E700002F09CFC019B1B685B6801989847034615
:103E8000184603B05DF804FB648F020010B582B0E1
:103E900001900091019B1B689B68002B04D1134982
:103EA0004FF4897002F082FC019B1B685B69002B58
:103EB00004D10E4940F2131002F078FC009B1C68FC
:103EC000019B1B685B690198984703461B689C42ED
:103ED00001D3072306E0019B1B689B6800990198AA
:103EE00098470346184602B010BD00BF648F020019
:103EF00010B582B001900091019B1B68DB68002B1C
:103F000004D113494FF4977002F050FC019B1B68D9
:103F10005B69002B04D10E4940F22F1002F046FCE1
:103F2000009B1C68019B1B685B69019898470346CE
:103F30001B689C4201D3072306E0019B1B68DB68DA
:103F40000099019898470346184602B010BD00BF7B
:103F5000648F020000B585B003900B4601928DF886
:103F60000B30039B1B681B69002B04D108494FF4DD
:103F7000A37002F01BFC039B1B681B699DF80B10D0
:103F8000019A039898470346184605B05DF804FB6C
:103F9000648F020000B583B00190019B1B685B69D0
:103FA000002B04D107494FF4AA7002F0FFFB019BDC
:103FB0001B685B69019898470346184603B05DF893
:103FC00004FB00BF648F020082B00190019B1B784C
:103FD000184602B0704700B583B00190019B002BDA
:103FE0000AD04FF47A70FFF773FE019B013B0193F7
:103FF000019B002BF5D100E000BF03B05DF804FB8E
:1040000000B583B00190019B002B03D104498220AD
:1040100002F0CCFB019B184603B05DF804FB00BF27
:104020009C8F020000B583B00190019B002B03D14F
:1040300009498E2002F0BAFB019B1B68002B03D1BB
:1040400005498F2002F0B2FB019B1B680C33184618
:1040500003B05DF804FB00BF9C8F020000B585B083
:10406000019000210198FFF777FE0390002103984B
:10407000FFF7AAFE02900298FFF7CCFE034618460F
:1040800005B05DF804FB00B585B0019000210198F2
:10409000FFF762FE039001210398FFF795FE02905F
:1040A0000298FFF7B7FE0346184605B05DF804FB1B
:1040B00000B585B001900198FFF7B4FF0390039B12
:1040C000002283F83020039B002283F83120039BD9
:1040D000002283F8322000BF05B05DF804FB00B574
:1040E00085B001900198FFF79DFF0390039B93F823
:1040F0003130002B14BF01230023DBB2184605B07A
:104100005DF804FB00B585B001900198FFF78AFFC8
:104110000390039B93F832301A46019B9B699A42A5
:1041200034BF01230023DBB2184605B05DF804FB61
:1041300000B587B001900198FFF774FF0490002349
:104140000593002002F05CFA0198FFF7DBFF0346BD
:10415000002B25D0049B93F830301A46049B93F82B
:10416000323013441A46019B9B69B2FBF3F101FB09
:1041700003F3D31A8DF80F309DF80F30019A52696E
:1041800002FB03F30293019B1A69029B13440593FC
:10419000049B93F832300133DAB2049B83F8322067
:1041A000002002F041FA059B184607B05DF804FBB9
:1041B00000B585B001900198FFF734FF039000200F
:1041C00002F01EFA039B93F83120039B93F83230E0
:1041D0009A4204D310494FF4897002F0E7FA039B26
:1041E00093F831301A46019B9B699A4204D30A49DD
:1041F00040F2131002F0DAFA039B93F831300133E6
:10420000DAB2039B83F83120002002F00DFA00BFE0
:1042100005B05DF804FB00BF9C8F020000B587B0BD
:1042200001900198FFF7FEFE049000230593002003
:1042300002F0E6F90198FFF752FF0346002B10D079
:10424000049B93F830308DF80F309DF80F30019AB1
:10425000526902FB03F30293019B1A69029B134408
:104260000593002002F0E0F9059B184607B05DF8C1
:1042700004FB000000B585B001900198FFF7D2FE65
:104280000390002002F0BCF9039B93F83130002B1F
:1042900004D11B494FF4A37002F088FA039B93F8F2
:1042A0003230002B04D1164940F2471002F07EFA5A
:1042B000039B93F83130013BDAB2039B83F8312042
:1042C000039B93F83230013BDAB2039B83F8322030
:1042D000039B93F8303001331A46019B9B69B2FB74
:1042E000F3F101FB03F3D31ADAB2039B83F8302016
:1042F000002002F099F900BF05B05DF804FB00BF93
:104300009C8F020000B58BB001900198FFF778FEFA
:1043100009900998FFF786FE08900198FFF7B3FE11
:1043200003468DF81F30089B01331F2200211846D9
:1043300023F03DFB089B013303931F2304930023C9
:10434000059303AA9DF81F3011461846FEF70CFC92
:104350000690069B002B02D1089B02221A70069B36
:1043600018460BB05DF804FB00B58BB001900B460E
:104370008DF803300198FFF743FE09900998FFF785
:1043800051FE08900198FFF769FE03468DF81F3033
:10439000089BDA6C089B9B6B934238BF13460693CD
:1043A000089B283319460698FFF72AFC089B9DF8BE
:1043B000032083F82C20089B203302930D230393C2
:1043C0000023049302AA9DF81F3011461846FEF7F9
:1043D000CBFB0590059B002B02D1089B06221A708F
:1043E000059B18460BB05DF804FB00B58DB003903B
:1043F000029101928DF803300398FFF701FE0B90B4
:104400000B98FFF70FFE0A900398FFF727FE03466D
:104410008DF82730029B0593019B06930023079399
:1044200005AA9DF8273011461846FEF79DFB089017
:10443000089B002B03D10A9B9DF803201A70089B50
:1044400018460DB05DF804FB00B585B001900198E9
:10445000FFF704FE03468DF80F300198FFF713FEB7
:1044600003468DF80E309DF80F3018460AF0FEF81E
:104470009DF80E3018460AF0F9F800BF05B05DF857
:1044800004FB00B58DB00390029101928DF80330CA
:104490000398FFF7B5FD0B900B98FFF7C3FD0A904B
:1044A0000398FFF7F0FD03468DF82730029B059334
:1044B000019B06930023079305AA9DF82730114618
:1044C0001846FEF751FB0890089B002B03D10A9B6E
:1044D0009DF803201A70089B18460DB05DF804FB88
:1044E00000B587B001900B468DF803300198FFF7B7
:1044F00087FD05900598FFF795FD04900198FFF75B
:10450000ADFD03468DF80F300198FFF7BCFD034663
:104510008DF80E309DF80F3018460BF00CFC9DF80E
:104520000E3018460BF007FC9DF80F3018460AF0C5
:104530009DF89DF80E3018460AF098F8049B9DF8F7
:1045400003201A7000BF07B05DF804FB00B587B008
:1045500001900198FFF754FD04900498FFF762FD65
:104560000390039B09331846FFF777FB0346002BA4
:1045700014BF012300238DF80B30002305939DF811
:104580000B3083F00103DBB2002B05D00121019831
:10459000FFF7EAFE059003E007210198FFF7A0FF6F
:1045A000059B184607B05DF804FB00B583B0019089
:1045B00008210198FFF794FF00BF03B05DF804FBEA
:1045C00000B583B0019009210198FFF789FF00BF72
:1045D00003B05DF804FB000000B589B003900291C0
:1045E000029B5B781846FFF78BFB0346012B29D112
:1045F000029B9B78062B25D10023059304AB18461C
:10460000FFF7F0FA0790029B1979029BDA7805AB65
:104610000093079B0398FDF727F90690069B052B4F
:1046200010D0059B3F2B04D909494FF4187002F0B4
:10463000BDF8029B0133059A07991846FFF766FA01
:10464000034600E00623184609B05DF804FB00BFEE
:104650009C8F020000B587B0019000910198FFF790
:10466000CFFC04900498FFF7DDFC0390009B5B787F
:104670001846FFF745FB03468DF80B309DF80B30CD
:10468000022B47D1009B9B78012B43D1009BB3F8B1
:1046900003309BB2002B3DD1039B1B78082B01D12B
:1046A0000F2338E000230593009B5B798DF80A30D7
:1046B0009DF80A3018460BF086FB9DF80A30184624
:1046C0000BF04BFB9DF90A30002B20DA039B1B7883
:1046D000072B02D0092B0DD01AE00198FFF7D3FC6D
:1046E000034618460BF039FB01210198FFF73CFE09
:1046F00005900DE00198FFF7C6FC034618460BF045
:104700002CFB02210198FFF72FFE059000E000BF6F
:10471000059B00E00623184607B05DF804FB000087
:1047200000B587B0019000910198FFF769FC0590F2
:10473000009B9B78FE2B2DD1009BB3F803309BB2DE
:10474000002B29D1009BB3F807309BB2012B25D158
:1047500002AB1846FFF746FA0490059B1B6A002B34
:1047600004D1114940F2CE2002F020F8059B1B6ACB
:104770009BB2013B9AB2049B1A800198FFF7C2FDDD
:104780000390009B0133012204991846FFF7BEF9FC
:10479000034605E000BF02E000BF00E000BF0623C3
:1047A000184607B05DF804FB9C8F020000B587B087
:1047B000019000910198FFF723FC05900598FFF701
:1047C00031FC0490009B9B78FF2B18D1009BB3F821
:1047D00003309BB2002B14D1009BB3F807309BB27F
:1047E000002B10D10198FFF72FFE049B1B78022BA2
:1047F00003D00198FFF786FD0390002305E000BF7A
:1048000002E000BF00E000BF0623184607B05DF8D5
:1048100004FB000000B583B001900091019B002BC8
:1048200004D1244940F2213001F0C0FF009B002B4D
:1048300004D1204940F2223001F0B8FF009B5B78A0
:104840001846FFF776FA0346012B16D1009B5B78DA
:104850001846FFF761FA0346002B02D0012B06D061
:1048600022E000990198FFF7B7FE03461DE000998A
:104870000198FFF755FF034617E0009B5B78184649
:10488000FFF74AFA0346002B02D0012B06D00BE0BB
:1048900000990198FFF7DEFE034606E000990198B3
:1048A000FFF784FF034600E00623184603B05DF8D7
:1048B00004FB00BF9C8F020000B585B00190009101
:1048C0000198FFF7AFFB0390019B5B69009A9A4246
:1048D00002D9019B5B690093039B5A6C009B1344B4
:1048E0005A1E039B5B6CB2FBF3F3184605B05DF8F0
:1048F00004FB82B001900091019B5A69009B934296
:1049000028BF1346184602B07047000000B589B0B2
:104910000190002307930198FFF772FB0690069819
:10492000FFF780FB0590059B93F83C3083F0010373
:10493000DBB2002B52D0059B93F83D30002B02D008
:10494000062307934AE0059B5B6B002B2BD0069850
:10495000FFF7C5FB0346002B40D00698FFF75EFC2F
:104960000490059B5B6B19460698FFF7C2FF039006
:10497000049B002B04D11C4940F27F3001F016FF4C
:10498000059B012283F83C200423039A0499019893
:10499000FFF72BFD0790079B002B1FD0059B0022E4
:1049A00083F83C201AE0059B1B78042B16D1059B4D
:1049B0009B6B002B10D1059B93F82C301946019866
:1049C000FFF7D2FC0790079B002B07D006494FF456
:1049D000647001F0EBFE01E006230793079B184685
:1049E00009B05DF804FB00BF9C8F020000B58DB0DC
:1049F000019000230B930198FFF702FB0A900A989D
:104A0000FFF710FB0990099B93F8543083F00103E2
:104A1000DBB2002B44D0099B93F85530002B02D019
:104A200006230B933CE0099B9B6C002B38D00A9823
:104A3000FFF768FB0346002B32D00A9BDA69099B1B
:104A40009B7B9B0013441B680893099B9B6C194636
:104A50000A98FFF731FF07900A98FFF769FB069065
:104A6000069B002B04D1114940F2AF3001F09EFEAD
:104A7000099B1B6D0393079B0493069B0593099B5E
:104A8000012283F8542003AB19460898FFF7FEF97A
:104A90000B900B9B002B03D0099B002283F8542022
:104AA0000B9B18460DB05DF804FB00BF9C8F020005
:104AB00000B589B00190002307930198FFF7A0FA91
:104AC00006900698FFF7AEFA0590059B93F83C30E8
:104AD00083F00103DBB2002B2ED0059B5B6B002B18
:104AE0002AD00698FFF70EFB0346002B24D0069829
:104AF000FFF71EFB0490059B5B6B19460698FFF7BA
:104B0000F8FE0390049B002B04D10E4940F2D130F3
:104B100001F04CFE059B012283F83C200523039AFB
:104B200004990198FFF7ADFC0790079B002B03D079
:104B3000059B002283F83C20079B184609B05DF8CE
:104B400004FB00BF9C8F020000B58DB001900023D4
:104B50000B930198FFF754FA0A900A98FFF762FA4C
:104B60000990099B93F8543083F00103DBB2002BCA
:104B700060D0099B93F85530002B02D006230B938D
:104B800058E0099B9B6C002B39D00A98FFF7A7FAD5
:104B90000346002B4ED00A9BDA69099B9B7B9B0046
:104BA00013441B680893099B9B6C19460A98FFF7EE
:104BB00083FE07900A98FFF731FB0690069B002BB7
:104BC00004D11F4940F2F53001F0F0FD099B1B6D47
:104BD0000393079B0493069B0593099B012283F88B
:104BE000542003AB19460898FFF782F90B900B9BF2
:104BF000002B1FD0099B002283F854201AE0099B48
:104C00001B78052B16D1099BDB6C002B10D1099B5F
:104C100093F82C3019460198FFF7A6FB0B900B9BDD
:104C2000002B07D0064940F20D4001F0BFFD01E026
:104C300006230B930B9B18460DB05DF804FB00BFD9
:104C40009C8F020000B585B0039002910192019BF8
:104C500009331846FFF701F80346002B04D00398E8
:104C6000FFF774FC034619E0019BDB7B062B04D0A5
:104C70000398FFF76BFC034610E0019B9B7B1A46F1
:104C8000029B1B6A9A4204D30398FFF75FFC03461A
:104C900004E000210398FFF767FB0346184605B0C0
:104CA0005DF804FB00B587B0039002910192019B6F
:104CB00010330593019BDB7B052B04D80398FFF78A
:104CC00045FC03463FE0019B9B7B1A46029B1B6A07
:104CD0009A4204D30398FFF739FC034633E0019B63
:104CE00009331846FEF7B9FF0346122B04D903987F
:104CF000FFF72CFC034626E0019B09331846FEF71C
:104D0000ACFF0490049B002B05D100210398FFF712
:104D10002BFB034617E0019B583312220021184653
:104D200022F045FE019BF02283F85820019B0B22C4
:104D300083F85F20019B03F158010323049A039831
:104D4000FFF753FB0346184607B05DF804FB00B5B8
:104D500085B00390029101920398FFF7F7FB034699
:104D6000184605B05DF804FB00B587B003900291CA
:104D70000192019BDB6C002B05D101210398FFF709
:104D8000F3FA03463EE0019B9B6C002B04D1039891
:104D9000FFF7DCFB034635E0019B5B7B5BB2002B3E
:104DA00004DB0398FFF7D2FB03462BE00298FFF7E2
:104DB0007FF9019B9A6C019BDB6C9A4207D9019B9E
:104DC000DA6C019B9A64019B022283F82C20019BE0
:104DD000DA6C019B9A63019B9A6C019B5A63019B5D
:104DE000002283F83C20019B002283F85420039882
:104DF000FFF7FCFD0590059B002B02D00398FFF701
:104E0000A5FB059B184607B05DF804FB10B588B0FC
:104E1000039002910192019B10330793019BDB7B6E
:104E2000052B04D80398FFF791FB034630E0029B63
:104E3000DA69019B9B7B9B0013441B6806930698D1
:104E4000FFF7A8F803465B680593079B1B798DF86D
:104E50001330079B5B781B0403F4F814079B0233A1
:104E60001846FEF7EAFE034623431A46019B1A65DD
:104E7000019B059A5A649DF81330059A03FB02F2D0
:104E8000019B9A64019A02990398FFF76DFF03460C
:104E9000184608B010BD00B587B00390029101928A
:104EA000019BDB6C002B05D101210398FFF75CFA15
:104EB00003463EE0019B9B6C002B04D10398FFF757
:104EC00045FB034635E0019B5B7B5BB2002B04DABC
:104ED0000398FFF73BFB03462BE00298FFF7E8F847
:104EE000019B9A6C019BDB6C9A4207D9019BDA6C9F
:104EF000019B9A64019B022283F82C20019BDA6CAF
:104F0000019B9A63019B9A6C019B5A63019B00224F
:104F100083F83C20019B002283F854200398FFF77C
:104F2000C7FD0590059B002B02D00398FFF70EFBF1
:104F3000059B184607B05DF804FB10B588B00390D8
:104F400002910192019B10330793019BDB7B052BA0
:104F500004D80398FFF7FAFA034630E0029BDA69B7
:104F6000019B9B7B9B0013441B6806930698FFF7ED
:104F700011F803465B680593079B1B798DF8133086
:104F8000079B5B781B0403F4F814079B0233184655
:104F9000FEF753FE034623431A46019B1A65019B05
:104FA000059A5A649DF81330059A03FB02F2019B9F
:104FB0009A64019A02990398FFF76DFF0346184619
:104FC00008B010BD00B589B0039002910192019B19
:104FD00010330793079B9B78002B04D00398FFF7AF
:104FE000B5FA03467CE0019B09331846FEF735FE0F
:104FF0000346242B04D90398FFF7A8FA03466FE071
:10500000019B09331846FEF728FE0690069B002BED
:1050100005D100210398FFF7A7F9034660E0019B43
:10502000002283F85820019B802283F85920019B9D
:10503000062283F85A20019B122283F85B20019BF1
:10504000202283F85C20029BDA69019B9B7B9B00FA
:1050500013441B6805930023049304AB1A460121F3
:105060000598FEF777FF049B002B1BD0019B03F1F3
:105070006000049B1B680822194622F0F8F9019B86
:1050800003F16800049B5B681022194622F0EFF9D7
:10509000019B03F17800049B9B680422194622F0CF
:1050A000E6F914E0019B603308220021184622F043
:1050B0007EFC019B683310220021184622F077FC09
:1050C000019B783304220021184622F070FC019BDA
:1050D00003F158010323069A0398FFF786F9034664
:1050E000184609B05DF804FB00B585B00390029145
:1050F000019200210398FFF737F90346184605B0DF
:105100005DF804FB00B589B0039002910192019B08
:1051100010330793019BDB7B052B04D80398FFF723
:1051200015FA03462AE0019B09331846FEF795FD60
:105130000346042B04D90398FFF708FA03461DE041
:10514000019B09331846FEF788FD0690019B5833F2
:105150000593059B03221A70059B00225A70059B3C
:1051600000229A70059B0022DA70019B03F158011E
:105170000323069A0398FFF738F90346184609B047
:105180005DF804FB00B585B0039002910192002107
:105190000398FFF7E9F80346184605B05DF804FBED
:1051A00000B585B003900291019200210398FFF7AA
:1051B000DBF80346184605B05DF804FB00B585B082
:1051C00003900291019201210398FFF7CDF8034665
:1051D000184605B05DF804FB00B589B00390029154
:1051E0000192019B10330793019BDB7B092B04D8B1
:1051F0000398FFF7ABF9034641E0019B09331846DA
:10520000FEF72BFD0346082B04D90398FFF79EF900
:10521000034634E0019B09331846FEF71EFD069055
:10522000069B002B05D100210398FFF79DF803464C
:1052300025E0029BDA69019B9B7B9B0013441B6862
:1052400005930598FEF7A6FE0490049B1B685A1E62
:10525000019B583319461046FEF72CFD049B5A68F3
:10526000019B5C3319461046FEF724FD019B03F1B8
:1052700058010323069A0398FFF7B7F80346184628
:1052800009B05DF804FB00B589B00390029101926A
:10529000019B10330793019BDB7B092B04D80398F8
:1052A000FFF754F903462DE0029BDA69019B9B7BD3
:1052B0009B0013441B6806930698FEF76BFE03469B
:1052C0005B680593079B07331846FEF7B6FC034659
:1052D000ADF81230079B02331846FEF7D5FC0246A4
:1052E000019B1A65019B059A5A64BDF81230059A14
:1052F00003FB02F2019B9A64019A02990398FFF75B
:1053000033FD0346184609B05DF804FB00B589B0CB
:10531000039002910192019B10330793019BDB7B69
:10532000092B04D80398FFF711F903462DE0029BDF
:10533000DA69019B9B7B9B0013441B6806930698CC
:10534000FEF728FE03465B680593079B0733184664
:10535000FEF773FC0346ADF81230079B0233184684
:10536000FEF792FC0246019B1A65019B059A5A645E
:10537000BDF81230059A03FB02F2019B9A64019A70
:1053800002990398FFF787FD0346184609B05DF8B8
:1053900004FB00B585B003900291019200210398AF
:1053A000FEF7E2FF0346184605B05DF804FB00B5C2
:1053B00089B0039002910192019B10330793019BE6
:1053C000DB7B092B04D80398FFF7C0F803463EE0C7
:1053D000019B9B7B1A46029B1B6A9A4204D303984B
:1053E000FFF7B4F8034632E0019B09331846FEF795
:1053F00034FC0346042B04D90398FFF7A7F80346AF
:1054000025E0019B09331846FEF727FC0690019B17
:105410005833059308220021059822F0C8FA062384
:10542000ADF81230BDF81230DAB2059B5A70BDF8F3
:1054300012301B0A9BB2DAB2059B1A70019B03F172
:1054400058010323069A0398FEF7CFFF0346184638
:1054500009B05DF804FB00B587B001900198FEF734
:1054600012FE03468DF8173003AA9DF81730114637
:1054700018460AF027FC03460493049B002B01D036
:1054800000230393039B184607B05DF804FB00005C
:1054900000B587B001900198FEF7B2FD0490049822
:1054A000FEF7C0FD0390039B3033282200211846ED
:1054B00022F07DFA039B243304220021184622F0B7
:1054C00076FA0198FFF7C7FF03461F2B04D0019817
:1054D000FFF76BF8002379E1039B01330422BD49F8
:1054E000184621F037FF0346002B04D00198FFF740
:1054F0005CF800236AE1039B03F12400039B05335E
:105500000422194622F02AFA039B002283F82C2059
:10551000039B9A7B039B83F84020039B0933184627
:10552000FEF79BFB0246039BDA64039B93F8403033
:105530001A46049B1B6A9A4204D30198FFF706F8A7
:10554000034643E100230593039B1B7C5A2B00F287
:10555000298101A252F823F0C5560000A55700008A
:10556000A5570000D3560000E1560000A5570000E3
:10557000A5570000A5570000EF560000A5570000F2
:10558000FD560000A5570000A5570000A5570000D4
:10559000A5570000A5570000A5570000A55700001B
:1055A0000B570000A5570000A55700001957000031
:1055B000A5570000A5570000A5570000A5570000FB
:1055C0002757000035570000A5570000435700003B
:1055D00051570000A5570000A5570000A55700002F
:1055E000A5570000A5570000A55700005F57000011
:1055F000A5570000A55700006D570000A5570000F3
:105600007B570000A5570000A5570000A5570000D4
:10561000A5570000A5570000A5570000A55700009A
:10562000A5570000A5570000A5570000A55700008A
:10563000A5570000A5570000A5570000A55700007A
:10564000A5570000A5570000A5570000A55700006A
:10565000A5570000A5570000A5570000A55700005A
:10566000A5570000A5570000A5570000A55700004A
:10567000A5570000A5570000A5570000A55700003A
:10568000A5570000A5570000A5570000A55700002A
:10569000A5570000A5570000A5570000A55700001A
:1056A000A5570000A5570000A55700008957000026
:1056B000A5570000A5570000A5570000A5570000FA
:1056C00097570000039A04990198FFF7BBFA0590D9
:1056D0007BE0039A04990198FFF7E4FA059074E0DF
:1056E000039A04990198FFF732FB05906DE0039A45
:1056F00004990198FFF78AFB059066E0039A0499E4
:105700000198FFF71AFC05905FE0039A049901984D
:10571000FFF758FC059058E0039A04990198FFF7A9
:10572000E3FC059051E0039A04990198FFF7EAFC25
:1057300005904AE0039A04990198FFF723FD05902C
:1057400043E0039A04990198FFF72AFD05903CE095
:10575000039A04990198FFF731FD059035E0039A0B
:1057600004990198FFF738FD05902EE0039A0499FB
:105770000198FFF788FD059027E0039A04990198A6
:10578000FFF7C4FD059020E0039A04990198FFF704
:1057900000FE059019E0039A04990198FFF707FEAF
:1057A000059012E0039B09331846FEF756FA0346AC
:1057B000002B04D00198FEF7C9FE059004E00121FA
:1057C0000198FEF7D1FD059000BF059B184607B074
:1057D0005DF804FB0C90020082B001900091019BE7
:1057E000002283F83C20019B5B6B009A9A4204D80C
:1057F000019B5A6B009BD31A00E00023019A53636C
:10580000019B9B6B009A9A4204D8019B9A6B009B68
:10581000D31A00E00023019A936300BF02B07047DF
:1058200000B587B0019000910198FEF7E9FB049064
:105830000498FEF7F7FB0390039B5B6B19460498F3
:10584000FFF757F80246009B934204D0104940F2FC
:105850004C7000F0ABFF00990398FFF7BDFF049870
:10586000FEF708FD0198FFF751F80590059B002B06
:1058700003D10198FFF7BAF80590059B002B02D0E1
:105880000198FEF763FE059B184607B05DF804FB20
:105890009C8F020000B587B0019000910198FEF73F
:1058A000AFFB04900498FEF7BDFB0390009B9B7830
:1058B00002AA114618460AF005FA0346002B01D049
:1058C00000230293009BDB78002B01D000232EE005
:1058D00000230593039B1B78033B042B22D801A2D2
:1058E00052F823F0F9580000115900002B5900001C
:1058F0002B5900001F590000039BDA6C029BD21A3F
:10590000039BDA6400210198FEF72EFD05900DE05F
:10591000029B19460198FFF783FF059006E00623D6
:10592000059303E00323059300E000BF059B1846A1
:1059300007B05DF804FB00BF00B587B0019000918F
:10594000002305930198FEF75BFB04900498FEF793
:1059500069FB0390039B5B6B19460498FEF7C9FF34
:105960000246009B934203D0039B012283F85520FB
:1059700000990398FFF730FF0498FEF719FC01988F
:10598000FFF796F80590059B002B03D10198FFF7D0
:10599000DBF80590059B002B02D00198FEF7D6FDA1
:1059A000059B184607B05DF804FB000000B587B002
:1059B00001900091002305930198FEF721FB0490CC
:1059C0000498FEF72FFB0390009B9B7802AA1146D8
:1059D00018460AF077F90346002B01D00023029302
:1059E000009BDB78012B11D1039B1B78052B0BD07F
:1059F000039B1B78062B03D0039B1B78012B03D141
:105A00000198FEF77FFC0590059B4EE0009BDB783C
:105A1000032B04D1039B01221A70002345E0009B55
:105A2000DB78022B0DD1039B1B78052B03D101984A
:105A3000FEF7C6FD03E00198FEF7B7FD00BF0023A7
:105A400033E0039B1B78023B052B24D801A252F8BC
:105A500023F000BF6D5A0000975A0000975A0000CB
:105A6000775A0000A75A0000915A00000198FFF7EA
:105A70000FFD059018E0002000F0C2FD029B1946C2
:105A80000198FFF759FF0590002000F0CDFD0BE0D5
:105A90000623059308E0074940F62E0000F086FE35
:105AA0000623059300E000BF059B184607B05DF88C
:105AB00004FB00BF9C8F020000B591B001900091E3
:105AC000019B002B04D19A494FF4046000F06EFE54
:105AD000009B002B04D1964940F6410000F066FE81
:105AE0000198FEF78DFA09900998FEF79BFA089045
:105AF00000230F93009B1B780E2B00F2108101A254
:105B000052F823F0255D0000415B0000895B000036
:105B1000255D00001F5D00005B5B0000675B00000F
:105B20001F5D00001F5D00001F5D00001F5D000085
:105B3000B95B0000255D0000135C0000975C00006D
:105B40000D220021089821F032FF089B2033042207
:105B50007849184621F002FFE5E000990198FEF728
:105B600059FE0F90DFE0009B9B785BB2002B05DABB
:105B700000990198FFF78EFE0F90D4E000990198EC
:105B8000FFF714FF0F90CEE000230E930EE0099B69
:105B9000DA690E9B9B0013441B68039300220021CB
:105BA0000398FEF7D7F90E9B01330E93099B1B6AEE
:105BB0000E9A9A42EBD3B6E00021032000F084FC59
:105BC0000590059B002B01D10623ADE00598FEF75B
:105BD000FBF903465B080493049B0C2B01D80623B6
:105BE000A2E001230D930FE00D9B5B00059A134487
:105BF0001B88184621F0E3FA0346002B01D1062347
:105C000092E00D9B01330D930D9A049B9A42EBD3C6
:105C100089E0099B1B6A102B04D9454940F699007D
:105C200000F0C4FD00230C932FE0099BDA690C9B64
:105C30009B0013441B680693099A3F490698FEF798
:105C4000F1F80F900F9B002B1BD1089BB3F87C2021
:105C500001210C9B01FA03F39BB213439AB2089BF8
:105C6000A3F87C200698FEF795F903465A68099B2D
:105C70005B699A4206D92E4940F6A50000F096FDD0
:105C800000E000BF0C9B01330C93099B1B6A0C9A2C
:105C90009A42CAD347E0099B1B6A102B04D92449B6
:105CA00040F6AF0000F082FD00230B9331E0099B2A
:105CB000DA690B9B9B0013441B6807930798FEF758
:105CC000CDF80F90FA230A9306E00120FEF783F93E
:105CD0000798FEF7C3F80F900F9B112B04D10A9B76
:105CE0005A1E0A92002BF0D10F9B002B0ED1089B5D
:105CF000B3F87C2001210B9B01FA03F39BB2DB4339
:105D00009BB213409AB2089BA3F87C200B9B0133F3
:105D10000B93099B1B6A0B9A9A42C8D303E0062394
:105D20000F9300E000BF0F9B184611B05DF804FB15
:105D30009C8F020010900200A163000010B58AB091
:105D400003900291019200930298FDF7FDFF034634
:105D50001A46A64B1A700298FEF752F90990039B57
:105D6000002B04D1A24940F6DC0000F01FFD019B8E
:105D7000059300230693009B0793039B0893089BBE
:105D80001B68002B54D040F60312934200F250825D
:105D900040F6E3029342C0F04B82A3F6E303202BCC
:105DA00000F2468201A252F823F000BF555E0000C7
:105DB000895E000031620000316200003162000043
:105DC00031620000D95E00000D5F00004B5F0000F3
:105DD0007F5F0000B75F0000FF5F000033600000DE
:105DE0003162000031620000316200003162000067
:105DF0003162000031620000316200003162000057
:105E0000316200003162000081600000B560000076
:105E1000316200003162000031620000096100005F
:105E20003D61000071610000A5610000D9610000C2
:105E3000704B00221A70EEE1089B09221A71069A33
:105E4000079B9A4205D3089B40F6E3021A600123A0
:105E5000F2E100BF059B002B05D0089A0599069B2F
:105E60000B4412791A70069B01330693089B042297
:105E70001A71069A079B9A4205D3089B40F6E402E2
:105E80001A600123D8E100BF059B002B05D0089ABA
:105E90000599069B0B4412791A70069B01330693F1
:105EA000544B1B7819460298FDF756FF0346524A99
:105EB0001360514B1B68089C1846FDF777FF03469B
:105EC0002371069A079B9A4205D3089B40F6E90284
:105ED0001A600123B0E100BF059B002B05D0089A92
:105EE0000599069B0B4412791A70069B01330693A1
:105EF000089B00221A71069A079B9A4205D3089BB9
:105F000040F6EA021A60012396E100BF059B002BD0
:105F100005D0089A0599069B0B4412791A70069BC6
:105F200001330693344B1B68089C1846FDF745FF68
:105F300003462371069A079B9A4205D3089B40F6B5
:105F4000EB021A60012377E100BF059B002B05D00F
:105F5000089A0599069B0B4412791A70069B013327
:105F60000693089B08221A71069A079B9A4205D34A
:105F7000089B40F6EC021A6001235DE100BF059B1F
:105F8000002B05D0089A0599069B0B4412791A70CC
:105F9000069B01330693089B099A92F828201A71F0
:105FA000069A079B9A4205D3089B40F6ED021A60B9
:105FB000012341E100BF059B002B05D0089A0599FC
:105FC000069B0B4412791A70069B01330693089BBB
:105FD000099A92F829201A71069A079B9A420DD3C2
:105FE000089B40F6EE021A60012325E138040020E8
:105FF0009C8F0200390400203C04002000BF059B58
:10600000002B05D0089A0599069B0B4412791A704B
:10601000069B01330693089B00221A71069A079B80
:106020009A4205D3089B40F6EF021A60012303E170
:1060300000BF059B002B05D0089A0599069B0B44D1
:1060400012791A70069B013306937D4B1B68184624
:10605000FDF7B3FE03461A467A4B1A707A4B0022BC
:106060001A70CBE0089B07221A71069A079B9A4286
:1060700005D3089B40F6FA021A600123DCE000BF5A
:10608000059B002B05D0089A0599069B0B441279B5
:106090001A70069B01330693089B05221A71069A13
:1060A000079B9A4205D3089B40F6FB021A60012326
:1060B000C2E000BF059B002B05D0089A0599069BFE
:1060C0000B4412791A70069B013306935C4B1B68D4
:1060D0005D4A127811461846FDF776FE03465B4A84
:1060E00013605A4B1B68089C1846FDF793FE034645
:1060F0002371069A079B9A4205D3089B40F6FF023C
:106100001A60012398E000BF059B002B05D0089A78
:106110000599069B0B4412791A70069B013306936E
:10612000089B02221A71069A079B9A4205D3089B84
:106130004FF410621A6001237EE000BF059B002B24
:1061400005D0089A0599069B0B4412791A70069B94
:1061500001330693089B40221A71069A079B9A42C4
:1061600005D3089B40F601121A60012364E000BFCA
:10617000059B002B05D0089A0599069B0B441279C4
:106180001A70069B01330693089B00221A71069A27
:10619000079B9A4205D3089B40F602121A6001231E
:1061A0004AE000BF059B002B05D0089A0599069B85
:1061B0000B4412791A70069B01330693089B002248
:1061C0001A71069A079B9A4205D3089B40F6031260
:1061D0001A60012330E000BF059B002B05D0089A10
:1061E0000599069B0B4412791A70069B013306939E
:1061F000154B1B780133DAB2134B1A70124B1A7815
:10620000104B1B789A42FFF42DAF114B1B780133D2
:10621000DAB20F4B1A700E4B1A780E4B1B789A425B
:10622000FFF40AAE089B40F608121A60012303E04F
:10623000089B00221A60002318460AB010BD00BF58
:106240003C040020400400204104002044040020BD
:10625000390400203804002000B589B00190009175
:10626000009B9B6807930798FDF7CAFE0690069867
:10627000FDF7D8FE0590009B5B685B680493059B67
:106280005A6C049B02FB03F30393059B1A6D049B5A
:106290001A44059B1A65059B9B6C039A9A4204D885
:1062A000059B9A6C039BD31A00E00023059A936424
:1062B000059BDB6C039A9A4204D8059BDA6C039B1E
:1062C000D31A00E00023059AD364059B002283F8CB
:1062D000542000BF09B05DF804FB00B587B0019001
:1062E0000091009B9B6804930498FDF789FE03903E
:1062F0000398FDF797FE02900398FDF759FF009B66
:106300005B78002B04D100990198FFF7A5FF03E00B
:10631000029B012283F83D200498FEF7F7FA0590CE
:10632000059B002B03D10498FEF760FB0590059BAD
:10633000002B02D00498FEF709F900BF07B05DF802
:1063400004FB00B587B001900091009B9B6804930B
:106350000498FDF755FE03900398FDF78BFF009B13
:106360005B78002B04D100990198FFF775FF02E0DC
:106370000498FEF7EBF80498FEF79AFB0590059B4E
:10638000002B03D10498FEF7DFFB0590059B002B43
:1063900002D00498FEF7DAF800BF07B05DF804FBFE
:1063A00000B583B001900091009B1B78032B21D88E
:1063B00001A252F823F000BFF5630000F56300006E
:1063C000C9630000DF630000002000F019F90099A4
:1063D0000198FFF782FF002000F026F90BE0002073
:1063E00000F00EF900990198FFF7ABFF002000F0D4
:1063F0001BF900E000BF00BF03B05DF804FB00BF65
:1064000000B587B003460A468DF807301346ADF84D
:1064100004309DF80720BDF804302949134451F891
:1064200023301B78002B09D19DF80720BDF80430DC
:106430002349134451F8233002333DE00020FDF797
:10644000D1FB039000238DF817309DF80720BDF88D
:1064500004301B49134451F82330049318E09DF88D
:1064600017301E2B03D91749FC2000F09FF99DF827
:10647000173001338DF81730049B19789DF81730C9
:106480005B00039A13448AB21A80049B013304937D
:10649000049B1B78002BE2D19DF8173001339BB28F
:1064A0005B009BB21BB2DBB21BB243F440731BB266
:1064B0009AB2039B1A80039B184607B05DF804FB51
:1064C00010000020A890020000B585B003460A46DF
:1064D0008DF807301346ADF804309DF80730002BD7
:1064E00005D100210020FFF78BFF034640E0002389
:1064F0008DF80D3000238DF80F3000238DF80E300D
:1065000016E09DF80E301C4A12F813309DF8072053
:106510009A4208D19DF80E30174A5B0013445B780D
:106520008DF80F3008E09DF80E3001338DF80E30F5
:106530009DF80E30052BE4D99DF80F30002B01D1CA
:10654000002315E09DF80F209DF80D300B491344F2
:1065500051F82330002B01D1002309E09DF80D30C4
:106560009AB29DF80F3011461846FFF749FF0346CF
:10657000184605B05DF804FB3890020010000020BA
:1065800082B003468DF807309DF90730002B09DBF8
:106590000B4A9DF90730134493F80033DBB25B09D3
:1065A000DBB20AE0074A9DF8073003F00F03043B13
:1065B00013441B7EDBB25B09DBB2184602B07047A6
:1065C00000E100E000ED00E072B600BF034B1B6885
:1065D0000133024A136000BF704700BF4804002027
:1065E000064B1B68013B054A1360044B1B68002BDC
:1065F00001D162B600BF00BF704700BF4804002051
:1066000000B583B0019000F025F80346012B03D0BC
:106610000449432000F0CAF8FFF7D6FF00BF03B0DB
:106620005DF804FB1891020000B583B003468DF8B5
:10663000073000F00FF80346012B03D00449512026
:1066400000F0B4F8FFF7CCFF00BF03B05DF804FB27
:106650001891020084B0EFF305830193019BC3F30B
:1066600008030393039B002B0DD1EFF314830093D6
:10667000009B0293029B03F00103002B0CBF01233C
:106680000023DBB200E00123184604B0704700B5D8
:1066900085B0EFF305830193019BC3F308030393D4
:1066A000039B002B0AD0039B103B0293029B5BB21F
:1066B0001846FFF765FF0346DBB200E00F231846DC
:1066C00005B05DF804FB000008B5044B1B68044AE4
:1066D00012681046984700BF08BD00BF4C04002058
:1066E000500400201EF0040F1CBFEFF309800AE0E5
:1066F000EFF308800549064A884201D8904202D843
:106700008D464FF00000034B1847000000000420A6
:1067100000E003205167000000BF00BFBFF34F8FB0
:1067200000BF064BDB6803F4E0620449044B1343EB
:10673000CB60BFF34F8F00BF00BFFDE700ED00E06F
:106740000400FA0500B583B00190FFF7E7FF0000F1
:1067500000B587B00190019B0493124B9B6A039391
:10676000104BDB6A002305930AE00122059B02FA25
:1067700003F31A46039B1340002B059B013305933B
:10678000059B192BF1D9084B1B6803F00103002B63
:1067900000D000BE0198FFF7D5FF00BF07B05DF83D
:1067A00004FB00BF00ED00E0F0ED00E000B585B0B7
:1067B00003460091ADF80630BDF806300293009B09
:1067C000039302AB1A46002144F20200FAF75EFE80
:1067D00000BF05B05DF804FB86B001900091019BFD
:1067E00053E8011F8AB2D88902449889824228BF9F
:1067F000121A1889824202BFBFF32F8F002307E0CD
:10680000C2EA010243E801200028E9D14FF0010368
:106810008DF80F30059002910492029A009B1A6045
:106820009DF80F30DBB2184606B0704784B0019077
:10683000019951E8013FC3EA034341E80132002ACC
:10684000F7D10392029300BF04B0704786B0019065
:106850000091019B53E8021F1FFAA1F2D8888242DF
:1068600002BFBFF32F8F00230DE0D889024498891F
:10687000824228BF121AC1EA024243E802200028DD
:10688000E8D14FF001038DF80F300590029104928A
:10689000029A009B1A609DF80F30DBB2184606B0D2
:1068A000704784B00190019951E8023FC3EA234345
:1068B00041E80232002AF7D10392029300BF04B0EC
:1068C000704784B00390029111461A460B46ADF80A
:1068D00006301346ADF80430029B002B01D10E2385
:1068E0001FE0BDF80630BDF80420B3FBF2F101FB58
:1068F00002F29B1A9BB2002B01D0092311E0039BEB
:10690000029A1A60039B00225A60039B00229A603D
:10691000039BBDF806209A81039BBDF80420DA8111
:106920000023184604B0704700B585B0019000916F
:10693000009B19460198FFF74FFF0346002B07D035
:10694000019B1B68009A128813440393039B00E089
:106950000023184605B05DF804FB00B583B0019034
:106960000091009B1A88009B5B889A4204D1019891
:10697000FFF75CFF012300E00023184603B05DF839
:1069800004FB00B585B001900091009B1946019869
:10699000FFF75CFF0346002B07D0019B1B68009AA2
:1069A000528813440393039B00E00023184605B06C
:1069B0005DF804FB00B583B001900091009B1A883C
:1069C000009B5B889A4204D10198FFF76AFF01237C
:1069D00000E00023184603B05DF804FB10B487B054
:1069E00001900091019B009A53E8004F104643E844
:1069F000000191F0000FF7D1059404900391059BDD
:106A0000184607B05DF8044B704710B487B001908A
:106A10000091019B009A53E8004F04EA020043E80A
:106A2000000191F0000FF6D1059404900391059BAD
:106A3000184607B05DF8044B704710B487B001905A
:106A40000091019B009A53E8004F04EB020043E8D9
:106A5000000191F0000FF6D1059404900391049B7E
:106A6000184607B05DF8044B704710B487B001902A
:106A70000091019B009A53E8004F94422CBFA01A4A
:106A8000204643E8000191F0000FF4D105940490F2
:106A90000391049B184607B05DF8044B704700B59E
:106AA00083B0019000210198FFF7AFFF034618461D
:106AB00003B05DF804FB00B58DB00190019BDB6A6B
:106AC0000993099B5B69099A926802FB03F31B0B0C
:106AD0000893099B5A69099B9B691344099A926818
