:02000002F0000C
:10400000000004205D430F0045430F0047430F00AD
:1040100049430F004B430F004D430F0000000000C9
:104020000000000000000000000000004F430F00EF
:1040300051430F000000000053430F0055430F0091
:1040400035740F0057430F0057430F0057430F00BD
:1040500057430F0057430F0057430F0057430F00BC
:1040600057430F0057430F0057430F0057430F00AC
:1040700057430F0057430F0057430F0057430F009C
:10408000CD8F0F0057430F0057430F0057430F00CA
:1040900057430F0057430F0057430F0057430F007C
:1040A00057430F0057430F0057430F0057430F006C
:1040B00057430F0057430F000000000000000000AE
:1040C00057430F0057430F0057430F0057430F004C
:1040D000958C0F0057430F0057430F0065830F0067
:1040E00057430F0057430F007DBA0F000000000038
:1040F0000000000057430F000000000057430F006E
:1041000000000000000000000000000000000000AF
:10411000000000000000000000000000000000009F
:10412000000000000000000000000000000000008F
:10413000000000000000000000000000000000007F
:10414000000000000000000000000000000000006F
:10415000000000000000000000000000000000005F
:10416000000000000000000000000000000000004F
:10417000000000000000000000000000000000003F
:10418000000000000000000000000000000000002F
:10419000000000000000000000000000000000001F
:1041A000000000000000000000000000000000000F
:1041B00000000000000000000000000000000000FF
:1041C00000000000000000000000000000000000EF
:1041D00000000000000000000000000000000000DF
:1041E00000000000000000000000000000000000CF
:1041F00000000000000000000000000000000000BF
:10420000314932480A1A02D0072291438D4630497B
:1042100030480A1A06D00722914381F30988022206
:1042200082F314882C482D492D4A00F03CF82D4883
:104230002D492E4A00F037F82D482E492E4A00F01D
:1042400032F82E482E492F4A00F02DF82E482F49DB
:104250002F4A00F028F82F482F49304A00F023F861
:104260002F483049304A00F01EF8304830490022CB
:1042700000F024F82F483049002200F01FF82F4AA0
:1042800090471F481F49884205D00268043003B494
:10429000904703BCF7E700208646EC46002000214B
:1042A000274A9047FEE7884207D0521A05D0037884
:1042B00001300B700131013AF9D17047884202D0C8
:1042C00002700130FAE770470000042000F8032074
:1042D0000000042000000420D0C80F001C000020B3
:1042E0005C000020B8430F00B8430F0014C30F0058
:1042F000D0C80F001C0000201C0000204CC30F0081
:104300004CC30F004CC30F004CC30F004CC30F0035
:104310004CC30F004CC30F004CC30F00D0C80F009C
:1043200010C90F005C0000205C0000205C00002031
:104330004C4000204C4000204C40002085430F00A2
:1043400091880F00FEE7FEE7FEE7FEE7FEE7FEE7E7
:10435000FEE7FEE7FEE7FEE700F002B8FFF7FCBF6E
:104360000F484FF00701884385460E4880470E48A6
:10437000016841F470010160BFF34F8FBFF36F8F8D
:10438000FFF73EBF09480A490A4A884207D0521A35
:1043900005D0037801300B700131013AF9D1704733
:1043A0000000042091900F0088ED00E038C30F005A
:0843B000080000201C000020A1
:1043B8000020704710B504461A4802F0AFFC1A4BAB
:1043C80018481C6002F0C1FC48B3184B002140F6A5
:1043D80003020330C3E9021258601970144B1549DF
:1043E80059601549C3E90212144A1A61144A5A61FC
:1043F80002F020FE852800D090B9002002F078FE57
:1044080070B902F0BBFB0F4801F026F840B90E481E
:1044180001F0C4F820B9BDE8104001F089B80320C4
:1044280010BD00BF24C30F00E4000020881900203D
:104438007019002061440F0055440F00181900201E
:104448001CC30F0070C30F004CC30F00011F0148AD
:1044580002F09BBC24C30F0013B5074C0A4601ABFE
:104468000146204602F058FD019A0448214601F011
:10447800FBFF02B010BD00BFFF1800204CC30F00A7
:1044880001F0EAB9083810B5062820D8DFE800F0AE
:1044980008141B1F1F1F0400BDE8104001F062B87C
:1044A80003F084FC08B901F05BF8094B1B6873B191
:1044B8000120BDE81040184701F066F8044B1B685E
:1044C8002BB10220F5E7BDE8104001F04DB810BD52
:1044D800E400002003780BB901F0BEB9014A0421B9
:1044E80000F036BE89440F00F8B5E9B9134E144CF4
:1044F800144F3178124802F043FD054660B938463A
:10450800D4E9011206F028F80F4802F01EFC18B191
:104518000330C4E9010525700C480122314601F039
:10452800C5FF0028E5D0F8BD0229FCD1BDE8F84058
:1045380002490648012201F0B9BF00BF3019002026
:10454800881900207019002024C30F004CC30F00E5
:104558000023C0E902328B881A44B1F9063002619F
:104568001A44C0E9001142610888003818BF0120C8
:1045780070474268118838B50346002937D0148A35
:1045880002F1100141602CB9C2680168FFF7E0FF31
:10459800204638BD9078118900F03005302D14D1AF
:1045A800947C04F03004302C1BD190881969091AC6
:1045B80019610021908AB2F916200844196901444A
:1045C8001961114459610120E3E700F0F004202C3F
:1045D80007D150894143002DECD19868013098608B
:1045E800E8E700F0C000802808BF0421F3E7084688
:1045F800CFE770B5466804460D4663681A88AA4234
:1046080004D19B7803F00F03082B07D12046FFF74E
:10461800B0FF6368B342F0D1002070BD0120FCE711
:1046280043681A44426011B101399A4201D101200C
:10463800704713F8010B01F8010FF6E770B54568EC
:10464800AA7802F00F06082E86B003461FD1036928
:104658001C6800260CB906B070BD236862689D68A6
:10466800267329466846FFF773FF6368049304F1CD
:104678000C030593AB7803F0C003802B08BF231D00
:10468800684608BF0493FFF7D9FFA468E2E712F071
:10469800C00122D102F0300010280CD15A691170E3
:1046A800072EEC6818690BD10146204606B0BDE814
:1046B800704000F01AB89006F2D55B691980CAE715
:1046C8002A89214624B106B0BDE8704007F076BAC1
:1046D80006B0BDE8704007F09ABA8029BBD10069DE
:1046E800002192060160B6D5E7E77FB50A46014684
:1046F8006846FFF72DFF30B16846FFF79FFF684611
:10470800FFF737FFF7E707B05DF804FB836810B5DC
:1047180004460BB9002010BD036801229847002801
:10472800F8D0A368013BA360F5E72DE9F3410F46F4
:104738000DF107018046FFF7E9FF054620B900257E
:10474800284602B0BDE8F0819DF907309DF8074082
:10475800002B13DA04F07F0407260DF10701404609
:10476800FFF7D4FF0028EAD09DF8072002F07F0366
:10477800B3401C43130606F1070601D43C60DFE78B
:10478800232EEAD1DBE7000030B5044685B0154694
:10479800A9B90268114B9A4211D0102D06D82A46A1
:1047A80069462046FFF7F0FF05B030BD1022694684
:1047B8002046FFF7E9FF0028F6D0103DEDE7A36893
:1047C800AB4201D20020EFE723682A4620469847EB
:1047D8000028F7D0A268521BA260E5E729460F001F
:1047E800F7B50E4601A907461546FFF79EFFA0B18B
:1047F800019A511C4FF0000404D2B37803F0C003AF
:10480800802B01D1204608E033898B42FAD3294610
:104818003846FFF7B9FF019BEC5403B0F0BD73B500
:104828000D4601A906461446FFF77FFF98B1019A85
:10483800B2F5803F11D2AB7803F0C003802B02F1B0
:1048480002010AD02B898B4207D32146304621F832
:10485800022BFFF799FF02B070BD0020FBE70000B4
:1048680010B5034C82600022C0E90041C26010BD4F
:1048780029460F002DE9F341002580460E462F46B4
:104888002C460DF107014046FFF740FFC0B19DF8E7
:1048980007C0A4F120030CF07F02C4F1200102FA42
:1048A80003F322FA01F10B43A2401CF0800F45EA02
:1048B800020547EA030704F1070404D1C6E90057D3
:1048C80002B0BDE8F081462CDBD10020F8E737B50F
:1048D8000D4669461446FFF7CDFF70B12B89082BAA
:1048E8000DD1DDE90032C4E90032DDE90001914271
:1048F80008BF98420CBF0120002003B030BD042B34
:1049080003D1009B23600022EFE7022B03D1009B19
:1049180023809BB2F7E7012B04D1009B237003F09F
:10492800FF03F0E70020E8E737B50D46694614466F
:10493800FFF7A0FF30B12B89082BDDE9001203D166
:10494800C4E9001203B030BD042B4FEAE17009D16D
:1049580021600B460246824208BF8B420CBF0120F1
:104968000020EFE7022B03D10BB22380DA17F2E71E
:10497800012B02D14BB22370F8E70020E2E7F7B52C
:104988001F4600233B700D460B70136001A90446B7
:104998001646FFF7CAFE30B9A36813B901233B7066
:1049A800002003B0F0BD019C002CF7D0E30804F010
:1049B800070433602C70F4E713B50446052925D89D
:1049C800DFE801F0030F17242422012201A9204661
:1049D800FFF7DAFE18B19DF90430002BF5DB02B0C1
:1049E80010BD08220021204602B0BDE81040FFF7A4
:1049F800CBBE01A9FFF799FE0028F0D0019A00214B
:104A08002046FFF7C1FEEAE70422EBE70020E6E7CD
:104A180073B50D4601A90446FFF787FE064618B987
:104A28000026304602B070BD94E80F0085E80F00FC
:104A380001998A42F4D3A960A3685B1AA360F0E7DE
:104A48002DE9F0435668B37813F0C00489B00746DF
:104A58008C46154603D0402C69D000240CE003F0A6
:104A68000F02604903F03003202B51F8228025D033
:104A780006D8E3B1102B17D0204609B0BDE8F08363
:104A8800302BF9D16B6931881980072A09D1214661
:104A98003289286907F0BBF86B682969D868FFF77D
:104AA80024FE2A69696840E06B6901221A702A6944
:104AB8003146434609B0BDE8F0431847BCF1020F40
:104AC800D5F8149024D1042A22D804A9FFF7A0FF0E
:104AD80004460028C1D0069B2BB16968B9F800309C
:104AE8004A899A4205D8059B7B60069B002BC3D058
:104AF800B3E708892A6903FB002204A8C04728B144
:104B0800B9F800300133A9F80030E4E70446EAE7D1
:104B1800B9F8003072899A429FD931892A69581C9C
:104B280003FB0122A9F8000031463846C1E7D2F854
:104B38001080464656F8043B23B909B0BDE8F04357
:104B4800FFF73ABF022914D104A9FFF761FF002833
:104B580083D0D8F800306968324604A898470446DC
:104B680000283FF47AAF069B002BF2D1059B7B60AF
:104B780082E7012926D005292CD000297FF46DAFC2
:104B88000C460DF1040901340B2C3FF466AF0122E9
:104B980049463846FFF7F8FD00283FF45EAF19F99B
:104BA800013B002BEFDB104B049301ABCDE905343F
:104BB800002307936968D8F80030324604A898475C
:104BC800044659E7082201A9FFF7DEFD082400285A
:104BD800E9D142E704220DEB0201FFF7D5FD0424D9
:104BE800F5E700BF7CC30F0029460F002DE9F04F01
:104BF80091B00446002604A8CDE90266FFF7A8FC98
:104C0800A3683BBBDDE9053404A89D78FFF7B1FC38
:104C18000028F7D115F0300F03D1059B1B8803B18D
:104C28000134002C00F0A980630902A900229342F4
:104C380040F09C8010AA02EB830304F01F0453F891
:104C4800383CC4F120044FF0FF30E040C31A58420A
:104C580058410DE00DF1030301AA0DF102012046B0
:104C6800FFF78DFE38B99DF80330002BCAD100201C
:104C780011B0BDE8F08F019904A8FFF7BAFC00282D
:104C880050D1019BB3427DD3059D059A937803F0DB
:104C98000F03082B7FD004A8FFF76BFC059B9D42F0
:104CA800F3D14FF0FF36019FB7426BD3089B9DF8B5
:104CB80002A0D4F808801D684FF00109A368002DF0
:104CC8005DD098459CD12B68D3F800B0BBF1000F9C
:104CD80008D053463A4629462046D8470028C6D029
:104CE800AD68EBE7D3F808B0BBF800309F42F7D1C6
:104CF8006A6859460AA8FFF72BFC6B680E9305F102
:104D08000C030F939BF8023003F0C003802B04BF01
:104D18002B1D0E930AAA85F80C9051462046FFF7E2
:104D28008FFEDBE7059B9B7813F0300F0FD1069AB7
:104D38003F2A0CD8510910AB03EB810102F01F0286
:104D48000123934051F8382C134341F8383CE56867
:104D58002DB19DF80220019904AB2046A8479DF883
:104D6800021004AA2046FFF76BFE10E051F8045B1E
:104D780001357FF47DAF013259E7012078E7984586
:104D88007FF43EAF9DF802102046FFF715FE00287D
:104D98007FF436AF6BE7168885E737B50C460546CE
:104DA800114620460192FFF7A0FC019A21462846A9
:104DB80003B0BDE83040FFF719BF70B586B0CE68C4
:104DC80001920C4602A90546FFF722FE68B1E06889
:104DD80058B1A378019A03F03003202B314602A87A
:104DE80005D1FFF7DAFF039B6B6006B070BDFFF7D4
:104DF800FDFEF8E713B50C466946FFF73BFD60B1C9
:104E0800DDE900134A0842EAC372C9074FEA5303AF
:104E180044BFD243DB43C4E9002302B010BD37B519
:104E28000D4669461446FFF7E5FF70B12B89082B3C
:104E38000DD1DDE90032C4E90032DDE9000191421B
:104E480008BF98420CBF0120002003B030BD042BDE
:104E580003D1009B2360DA17EFE7022B03D1BDF9DA
:104E680000302380F7E7012B03D19DF90030237030
:104E7800F1E70020E9E713B504220C460DEB020127
:104E8800FFF782FC08B1019B236002B010BD1146F8
:104E9800FFF7F1BF13B508220C466946FFF774FC0B
:104EA80018B1DDE90023C4E9002302B010BD1146A2
:104EB800FFF7F0BF38B52022044608300D4606F04B
:104EC8007DFE2022A91804F1280006F077FE0020B4
:104ED80038BD00002DE9F743DFF86C809946184B80
:104EE800036004460E4640460121174601F0DEFEE7
:104EF8000546BFF35F8FF8B900F0E6F80A9ACDF8D7
:104F080000903B4606F10801204605F057FC044690
:104F180000F0E8F8BFF35F8FC8F8005044B10949C2
:104F280048F2165248F242538C4214BF14461C46AB
:104F3800204603B0BDE8F08348F20454F8E700BF08
:104F4800DD55AABB8408F000982900200E4B984232
:104F580014D00AD8B8B10D4948F2165248F2015394
:104F6800884214BF104618467047094B984208D02B
:104F7800084948F2165248F20353F1E748F2035041
:104F8800704748F2025070470102F0000002F0003A
:104F98000202F0000F02F00008B5083005F078FCB6
:104FA800BDE80840FFF7D2BF13681F2B2DE9F34176
:104FB80006460F46144620D9DFF84C8001214046AA
:104FC80001F074FE0546BFF35F8FC8B900F07CF8A6
:104FD800394606F1080005F0C7FC019000F082F898
:104FE800BFF35F8F0198C8F80050FFF7AFFF08B90B
:104FF8002023236002B0BDE8F08148F21450F9E79D
:1050080048F20450F6E700BF982900202DE9F04146
:1050180005460E4619480121144601F047FEBFF324
:105028005F8F38BB00F050F8DFF854800835B4F5CE
:10503800805F274628BF4FF4805731463A4640469E
:1050480006F0BCFD3A464146284605F03BFCE41B09
:105058003E4468B9002CEAD100F044F8BFF35F8FF2
:10506800064B00222046BDE8F0411A60FFF76EBFEC
:105078000446F1E748F20450BDE8F0819829002081
:1050880098190020024B0020C3F80005704700BFA4
:1050980000A0025038B50A4B00251D60BFF35F8F92
:1050A800084C0123C4F8003505F08EFCC4F80055FF
:1050B80020B1052848F2035018BF032038BD00BFAF
:1050C8009829002000A00250044B0122C3F80025B3
:1050D800034B4FF480625A60704700BF00A0025033
:1050E80000E100E0064B0022C3F80025054B4FF411
:1050F8008062C3F88420BFF34F8FBFF36F8F704770
:1051080000A0025000E100E04B1C30B5DB00044673
:1051180012F003009BB20DD1074D2A601A44074BC9
:105128001A60074B1870074B1870074B1C80074B09
:10513800198030BD0720FCE7A4290020A029002001
:105148009C290020AC290020A8290020AA29002099
:105158002DE9F047DFF8B480B8F800308B420646F6
:105168000D46174645D3002001F080FD234B244A05
:105178002448197800881478E3B2844238BF013390
:10518800C9B234BFDBB2002399422CD0147811780D
:10519800CBB2884286BF0133DBB2002313700020F4
:1051A80001F066FD4FF6FF739C4224D0DFF8609053
:1051B800D9F800204FEAC40A42F8347002EBC4035D
:1051C800A6B19DB1104BB8F800001B682A4604FB35
:1051D8000030314606F0F2FCD9F800305344002084
:1051E8009D80BDE8F0874FF6FF74D8E700209880CF
:1051F800F7E70920F5E70420F3E700BFAC29002012
:105208009C290020AA290020A0290020A8290020E4
:10521800A429002070B5104C104D22782B789A42A2
:1052280000D170BD0E480F4A2378126806880E48D0
:1052380002EBC301006852F83320898803FB06009B
:1052480090470A4922780988D3B2914286BF013330
:10525800DBB200232370E0E7AC2900209C29002062
:10526800A8290020A4290020A0290020AA2900207C
:1052780043681B6818470000024B5B6803B1184776
:10528800704700BFB0290020020600F00F034CBF92
:1052980002480348DB001844704700BFBC290020BF
:1052A800042A002008B5FFF7EFFF016009B14B6839
:1052B8001968416008BD00000378052B0BD1074A27
:1052C800D2F88434D2F88024D2B222B9044ADBB2AC
:1052D800052B08BF1046034B1B6818470070024097
:1052E800DCC30F00B0290020012805D0022805D012
:1052F80030B90448FFF7E0BF0348FBE70348F9E784
:10530800704700BFD8C30F00D4C30F00D0C30F002D
:10531800FFF7D2BF0148FFF7CFBF00BFE0C30F00C0
:10532800024B0146D3E90002104700BF042A0020BF
:1053380038B5831EDBB2062B98BF1A4A1A4D98BFA0
:10534800D25C2B78A3F10203DBB288BF0022062BC4
:105358009ABF1449CB5C00239342044603D0B2B1F0
:10536800124801F087FE022C14D0A4F10800424232
:1053780042412B78022B0FD0A3F108014B424B413D
:10538800934202D052B102F057FD2C7038BD01F0A3
:105398009BFEE8E70122ECE70123F1E702F042FD7A
:1053A800F3E700BFC4C30F00552A002020000020E7
:1053B8002DE9F04F87B000260546884691461F46DE
:1053C80002966B6800225C682946012302A8A04760
:1053D800044638B98DF8060004908246564503D82D
:1053E800052028E00136ECE76B680DF10602D3F8DA
:1053F80004B02946012304A8D8476B680DF10702B9
:10540800D3F804B02946012304A8D8479DF80730EB
:1054180043459DF8063013D14C450FD1109A1360BF
:105428003B7087F801806A68023B54682946BA1CB9
:1054380004A8A047002007B0BDE8F08F0134E4B20B
:105448006A68023BD2F804B02946002204A8D8476B
:105458009DF806309A44C1E72DE9F74305462B48E5
:1054680002F000FD044600284CD1294B1870294B46
:105478001860294B014618604822284806F0C7FBE7
:1054880027484822214606F0C2FB264B95B9264AF2
:105498001D72C3E90025002001F02AFE18B18528F5
:1054A80001D003F0EEF9214F002697F8089007F194
:1054B800090814E095E8070083E807000028EAD106
:1054C800194A1A60E7E7A37823443946985CFFF73E
:1054D800E9FE01356378EAB29342F4D80136F4B2B2
:1054E800A14504D904EB440444440025F2E70B2306
:1054F8000E488DF8043001A9FFF7BAFE044608B13A
:1055080002F086FB204603B0BDE8F08319530F0074
:10551800552A00204C2A0020502A0020BC290020AF
:10552800042A0020B029002061580F00FCC30F0096
:1055380010B502F033FC10B90823184610BD02F06C
:1055480035FC04460028F7D1044801F0ECFD034679
:105558000028F2D003F095F92346EEE7CCC30F00FC
:1055680002F060BB02F088BF4FF08043D3F83824C4
:10557800920702D50348FFF79FBED3F83824D10716
:10558800F4D47047E5C30F0007B5822301A88DF84E
:105598000430FFF791FE03B05DF804FB2DE9F743F3
:1055A80000F1090190F80890054600270E46FBB265
:1055B8004B452AD291F801800024E3B298450AD9D4
:1055C8008B780A190134D05CFFF75EFE0368002B64
:1055D800F3D0112028E001370331E8E7A27823440B
:1055E8002946985CFFF75EFE01376278FBB29A4263
:1055F800F4D808F101082B7A5FFA88F4A34216D987
:1056080004EB440434440027EFE74FF00008F2E7C6
:1056180013681A68002AFBD11D6001A90B232846CC
:105628008DF80430FFF724FE03B0BDE8F083014B8A
:10563800EFE700BF4C2A0020024B1878003818BF4B
:1056480001207047542A0020030710B5044604D4EB
:1056580002F024FD204602F0D5FF2046BDE81040A8
:1056680002F07CBF02F048BF014B1868704700BFCA
:105678004C2A0020F0B50A4B0246186878B1057A22
:105688000023861DDCB2A54201D80368F5E7013383
:1056980003EB4307F75D9742F4D101B10C70F0BDFD
:1056A8004C2A00201146FFF7E3BD08B500F00F03B0
:1056B800082B07D8FFF7E8FD006818B1BDE80840D7
:1056C800FFF7D6BD102008BD38B5054B05461C6848
:1056D80004B938BD29462046FFF7CAFD2368F6E716
:1056E8004C2A002038B5074B05461C680CB9062023
:1056F80038BD29462046FFF7BBFD0628F8D12368A8
:10570800F3E700BF4C2A002013B50446019102F0CC
:10571800EFFB50B1064B1B78022B06D101992046AE
:1057280002B0BDE8104002F0F3BB082002B010BD83
:10573800552A002013B50446019102F0D9FB50B157
:10574800064B1B78022B06D10199204602B0BDE812
:10575800104002F051BC082002B010BD552A0020AC
:10576800F8B543689B6805460C46164613B92EB132
:10577800072002E098470628F9D0F8BD2B7AA34203
:1057880013D9093504EB44042C446778F3B29F42DB
:1057980001D80020F1E762789A4208D9A219A378C3
:1057A800D05CFFF751FF0136F0E77378FFDE002386
:1057B8001B78FBE74368DB6870B505460C4603B108
:1057C80098472B7AA34213D9093504EB44042C4497
:1057D80000256678EBB29E4200D870BD62789A4286
:1057E80009D96219A378D05C02F086FE0135F1E789
:1057F80000235B78FFDE00231B78FBE743681B6907
:1058080003B118471846704770B5084B1C6804B9AF
:1058180070BD267A0025E9B28E4201D82368F5E7E3
:1058280000222046FFF79CFF0135F4E74C2A0020B0
:1058380070B5084B1C6804B970BD267A0025E9B21A
:105848008E4201D82368F5E72046FFF7B3FF0135FC
:10585800F5E700BF4C2A002038B503780F2B044623
:1058680010D9A3F1800283F08003052B00D938BD3D
:10587800052AFCD8DFE812F067002C004900730005
:105888007E00E0000F2BF2D801A252F823F000BFEF
:105898009F590F00CF590F002F5A0F00F3590F00CF
:1058A800115A0F00415A0F00535A0F0077580F0032
:1058B8007D5A0F00815A0F00855A0F0077580F0044
:1058C80077580F0077580F0077580F004B5A0F0082
:1058D8006B48FFF725FD6A48FFF7F6FE0D20FFF736
:1058E800CBFCFFF7A5FF00F0D2FE664B1B6853B94F
:1058F800654B187A00F0010002F02CFA0120BDE88F
:105908003840FFF715BD0120F4E7FFF791FF02F0DB
:1059180091FD0020FFF70CFD5C48FFF7D5FE5B48C2
:10592800FFF7FEFC0E20FFF7A7FC594B1B78023B44
:10593800DBB2062B9BD8574AD35C002B97D0BDE827
:10594800384001F0C1BB524B1B78062B05D003F041
:10595800FD03052B8BD10220D1E70820CFE74C4B64
:105968001B78032B83D102F0A1FD00283FF47FAF01
:105978000420C4E7464B1B78032B05D102F096FDA3
:1059880010B10420FFF7D4FC02F01AFA00283FF403
:105998006EAF0620B3E73E4B1B78032B01D0082BD4
:1059A80002D13D48FFF758FF0020FFF765FC354B53
:1059B8001D68002D3FF45BAF28462146FFF758FCD1
:1059C8002B685D68F5E7FFF733FF00F057FE02200C
:1059D800FFF7AEFC0120FFF74FFC2046FFF7A0FCC5
:1059E8002046BDE83840FFF76FBE294B1B78082BCF
:1059F80006D10220FFF79CFC02F028FA0320EAE710
:105A08000520FFF795FCF9E70320FFF735FC23484D
:105A1800FFF786FC2148FFF757FE1D4B1B78062B26
:105A280099D107206BE70320FFF782FC0220FFF7DC
:105A380023FC2046FFF748FE2046BDE83840FFF724
:105A48006FBC0F20FFF718FCCAE78078FFF71CFC33
:105A5800214643680068984700283FF408AFA078BB
:105A680002073FF404AF03073FF501AFBDE8384034
:105A780002F006BB0820E5E70920E3E70A20E1E792
:105A8800E4C30F00502A0020B0290020E3C30F0010
:105A9800552A0020C4C30F00E2C30F00E1C30F0062
:105AA800C36903B11847704703680022C3E91E227F
:105AB800C3E920221A845A62DA6203F134025A676F
:105AC8007047CA699A4210B543600CD38C69046068
:105AD800086F18440867D01A1C44C86100388C61E4
:105AE80018BF012010BD01F1280202608B67002059
:105AF800F8E710B5044658B90868037B202B09D18C
:105B080000F10E010722183006F058F8204610BDA3
:105B18000320FCE70620FAE7F0B504680D7A002CAC
:105B280000F08780A4F213347C2C00F222837C2CB2
:105B380000F21F83DFE814F085008F009D00A900A4
:105B4800B500C100CD00D9001D031D031D031D03B1
:105B58001D031D03EF00FB001D031D031D031D0393
:105B68001801240132011D031D031D0345015101C4
:105B78007F011D031D031D031D03670173017F01C1
:105B88001D031D031D031D031D031D038B011D03A1
:105B98001D031D031D039F01AB01B701C301CF0105
:105BA8001D031D03DB01E701F301FF010B021D03C8
:105BB8001D031C022802340240021D031D034C026F
:105BC8005802640270027C021D031D031D031D039D
:105BD8001D031D031D031D031D031D031D031D03BD
:105BE8001D031D031D031D031D031D031D039B0230
:105BF800A7021D031D031D03C0021D031D031D0372
:105C08001D03DD021D031D031D031D03DD021D030E
:105C18001D031D031D031D031D03E902F5021D03DA
:105C28001D031D031D0313031D031D031D031D0376
:105C380013030824047123B940F2133303600120CD
:105C4800F0BD0AB1047914700B24012B04710ED82D
:105C58004FF44573F2E700240AB10679165501346A
:105C68000E7D06719C4205D340F21533E6E7012408
:105C7800F2E700240AB106791655013402269C423F
:105C8800067103D340F21633D8E700240AB1067927
:105C98001655013402269C42067103D340F217338D
:105CA800CCE700240AB106791655013402269C4235
:105CB800067103D34FF44673C0E700240AB106798E
:105CC800165501344E7E06719C4203D340F21933B7
:105CD800B4E700240AB106791655013400269C421F
:105CE800067103D340F21A33A8E700240AB10679F3
:105CF80016559D4E0027013437709B4E3678AE42BC
:105D080002D340F29A3399E70926A342067103D8D1
:105D180040F2213392E700240AB10679165501347E
:105D280004269C42067103D340F2223386E70024FE
:105D38000AB1067916558C4E0F7A3678DFF82CC2E0
:105D4800B74204F1010440F2188201F1090706EB99
:105D5800460607EB060E9C42BE5DCCF800E00671D5
:105D680003D340F2273369E700240AB106791655B0
:105D7800013400269C42067103D34FF44A735DE751
:105D880000240AB106791655784E366801347678BB
:105D980006719C4203D340F229334FE700240AB12D
:105DA80006791655714E0F7D36683678B74204F17C
:105DB80001041ED102269C42067103D340F22D3302
:105DC8003CE700240AB106791655013402269C42A4
:105DD800067103D340F22E3330E700240AB1067966
:105DE800165501344E7E06719C4225D340F22F335E
:105DF80024E78F7DB74223D10A269C42067103D33C
:105E08004FF44D731AE700240AB106791655013488
:105E180000269C42067103D340F235330EE7002476
:105E28000AB106791655013400269C42067103D33F
:105E380040F2363302E700240AB1067916550134D8
:105E48000026A342067103D840F23D33F6E600244B
:105E58000AB106791655454E0F7D36683678B74231
:105E680004F1010440F0E98005269C42067103D341
:105E780040F24233E2E600240AB1067916550134AD
:105E880024269C42067103D340F24333D6E600240D
:105E98000AB106791655013400269C42067103D3CF
:105EA8004FF45173CAE600240AB106791655013435
:105EB80010269C42067103D340F24533BEE6002407
:105EC8000AB106791655013401269C42067103D39E
:105ED80040F24633B2E600240AB106791655013479
:105EE80005269C42067103D340F24933A6E60024F6
:105EF8000AB106791655013424269C42067103D34B
:105F080040F24A339AE600240AB10679165501345C
:105F180001269C42067103D340F24B338EE60024DF
:105F28000AB106791655013403269C42067103D33B
:105F38004FF4537382E600240AB1067916550134EA
:105F48008E7D06719C4203D340F24D3376E60024E1
:105F58000AB106791655013404269C42067108D305
:105F68004FF454736AE600BF572A00205C2A0020C9
:105F780000240AB106791655013424269C4206717C
:105F880003D340F2513359E600240AB10679165575
:105F9800013402269C42067103D340F252334DE687
:105FA80000240AB106791655013402269C4206716E
:105FB80003D340F2533341E600240AB1067916555B
:105FC800013405269C42067103D340F2563335E668
:105FD80000240AB106791655013424269C4206711C
:105FE80003D340F2573329E600240AB1067916553F
:105FF800013406269C42067103D34FF456731DE6FE
:1060080000240AB10679165501340E7D06719C42AA
:1060180003D340F2593311E600240AB10679165524
:1060280001348E7D06719C4203D340F25A3305E653
:1060380000240AB1067916550134534E366877782C
:10604800524E3770524E00273770514E37784F4EA8
:106058003678B74204D34F4F3E7801363E704CE64F
:106068000726A342067103D840F26E33E6E5002402
:106078000AB106791655013405269C42067103D3E8
:1060880040F26F33DAE500240AB1067916553E4E20
:106098003F4F36683F7896F801C0BC4504F10104CB
:1060A80070D996F802C03E449C4216F80C600671FE
:1060B80003D340F27333C1E500240AB106791655BB
:1060C800314E0F7D36683678B74204F1010406D1A7
:1060D80003269C4206710DD34FF45E73AEE58F7DA7
:1060E800B7420BD102269C42067103D340F27D339E
:1060F800A4E500240AB10679165501344026A342C6
:10610800067103D84FF4617398E500240AB1067943
:106118001655013400269C42067103D340F285339C
:106128008CE500240AB106791655174E0F7D36689E
:106138003678B74204F1010407D10E6A9C423678DA
:1061480006710DD340F28A3378E58F7DB7420BD1C3
:1061580000269C42067103D340F28F336EE500247B
:106168000AB1067916550134094F3E7801363E705A
:106178006BE700230360184662E50023CCF8003083
:106188001B78FFDE0023FBE75C2A0020562A00204C
:10619800582A0020572A0020037A012B08D9427B6D
:1061A800012A00F10C0306D9827B13445878704702
:1061B80000235B78FFDE00231B78FBE72DE9F0471F
:1061C8000B7888B005460E460E2B1AD8DFE813F078
:1061D80060003B016000600019000F00A600190074
:1061E80019003801190060006000600060004A78FA
:1061F800D1094FEA521335D013F0030303D0012B12
:1062080021D006241BE002F01F02012AF9D1B4783C
:10621800062CF6D105A8039300F0A8FC03AB009365
:10622800F2783179034607462846FFF7C1F8052872
:1062380005D0039A3946701C00F044FA04462046FB
:1062480008B0BDE8F087B378212BDAD1B6F807207B
:10625800072AD6D10168701C183108B0BDE8F0478C
:1062680000F030BA012BCCD1B3780768202B11D0BD
:10627800222BC6D1B6F80730002BC2D13A8CB6F81B
:1062880003303B8402F0010203F001018A4220D16D
:106298000024D4E7B6F80730072BB2D14FF4E462F4
:1062A800BA8100200E37CDE90573079000F0DEFCB7
:1062B80005A90020FFF728FA044630B9684B03A95E
:1062C800CDE9033500F0ECF90446002000F0D0FCDD
:1062D800B5E78CB2C1F10301C9B2FFF7E1FB002CAD
:1062E800D6D12B7A012B40F2B4806B7B05F10C02DE
:1062F800002B00F0B080AB7BD05C01F0F1FF2846AA
:10630800FFF74AFF01F0ECFF07F13403C7E91E4429
:10631800C7E920447C62FC627B6790E7037A002B24
:1063280000F09B80837A00F10901002B00F0938034
:10633800C27AB3788A5C9A42AAD01B06F77809D544
:1063480027B1032F14BF0324002478E70121FFF7A6
:10635800A7FB9DE707F0FD03012B99D0002F76D10D
:106368000668FFF719FF3F4BB46A059306F10C0363
:1063780081460693C4B9F36FB467C6E91F43F36A4D
:1063880063B1D6E90B0106F1240383E80300F46244
:1063980005A94846FFF7CEF9044600E074620021DB
:1063A8002846FFF77DFB4AE7D6F884A0706A544573
:1063B80028BF544606F134082246414605F0FEFB44
:1063C800F36F2344C6E91F73AAEB0403B367F36AA8
:1063D800444474672BB306F1240406F12C0898E8AA
:1063E800030084E80300B36F706AF7621BB9736A2D
:1063F800002BCDD116E0B26A716F9A4214D805F01D
:10640800DDFBB36AB26FC6F88030D21AB267726F1A
:106418001A44726700212846FFF742FBF36A002BF3
:10642800DDD173620024BAE71A4605F0C7FBB26FE4
:10643800B36AF2679B1AB362736A13447362D6E74E
:106448000321FFF72DFB2846FFF72EFB20E7032447
:10645800F5E66378FFDE1B78FCE75B78FAE700BFB8
:10646800FB5A0F00CB5A0F001FB503681B8CDC07C3
:1064780014D5037A012B13D9437B00F10C0493B193
:10648800837BE05C9306CDE901120CBF0123002356
:1064980001A90393FFF738F904B010BD0820FBE702
:1064A80000235B78FFDE1B78FCE700002DE9F34151
:1064B8000468238CDB0780460F46164646D5002025
:1064C80000F0D4FB656A002D38D1A16FB14213D317
:1064D800616F3246384605F071FBA36FC4F88060DF
:1064E8009B1BA367636F33446367002000F0C0FB06
:1064F800284602B0BDE8F081C4E909764046FFF7B6
:106508004BFE134B009304F10C030646019369B14B
:106518000A463846616F05F051FBA36FA26AD21A8A
:10652800A262626AC4E91E531A446262694630462E
:10653800FFF700F9051E08BF9225D6E7E36A1BB9E5
:10654800C4E90B769225D0E71125CEE70825CFE7D9
:10655800CB5A0F00002070472DE9F04F2DED028B2C
:106568004B6885B080460C4601926BB90B681B6876
:106578001B684BB98D683DB9C0E90055284605B080
:10658800BDEC028BBDE8F08F01F076FD019BE7685A
:106598009F4228BF1F4604F110034FF0000A08EE7F
:1065A800103A8146564601254FB3A3686168BB423D
:1065B8009B4628BFBB4629B35A4609EB060005F09F
:1065C800FDFA00236360A268E368A2EB0B02A3EB69
:1065D8000B03A260E360A7EB0B075E440ABBBAF1AA
:1065E800000F03D02268126812682260DBB12368AA
:1065F800DBB963601EB1019BB34288BF0025C8E9BF
:106608000096BBE7002BDED021684B6818EE100A15
:10661800D3F804A009EB06025B46D0474FF0010A05
:10662800D1E7002BC0D10025BEE7002302932168E3
:106638004B680022D3F804B002A80123D84708B950
:106648002061B1E7A3680133A360F0E7084B1A782B
:1066580082420CD0052818BF064A187018BF137854
:1066680005481CBF23F002031370FFF7F5B8704705
:106678006C2A0020882A00200CC40F0008B50020CE
:10668800FEF7E2FFBDE808408020FEF7DDBF08B551
:106698000020FEF7E7FFBDE808408020FEF7E2BFD4
:1066A80038B505460C4601F079FDA84205BFD4E986
:1066B8000001034B1020C3E9000108BF002038BDCA
:1066C8008C2A00207FB5C38893421E4628BF1646F1
:1066D80093420D46144620D9802001F003FCB4FBF8
:1066E800F0F202FB1044B4FA84F464090020039425
:1066F800CDE9015600F0BAFA01A98020FFF704F8A5
:10670800044620B906498020FFF7CAFF0446002046
:1067180000F0AEFA204604B070BD0024E6E700BFE2
:1067280040C40F002DE9F04F0B780E2B89B00D46B1
:1067380013D8A3B1013B0D2B11D8DFE813F01200D9
:106748001A00160010002A00F601100010001000B0
:1067580010001A00E001E401F401852B13D006248F
:10676800DDE10320FFF772FFF9E7A94800F0D0FA4E
:1067780008B90024D3E1A74B0122DA65BFF36F8F74
:10678800BFF34F8FF5E7A44B1B78032BE7D1042009
:10679800E8E70523A14D8DF814300DF1150001F03F
:1067A8008DFC00232B609DF8153003F01F07032F85
:1067B80000F25E81DFE817F00400F60053013E00A6
:1067C80013F0600FC3F3411834D1DB099DF816109C
:1067D80000F0A280062916D0082900F08F8049BB56
:1067E8008F4C0222204605F012FA237843F001026A
:1067F80022708C4A1278920744BF43F00303237037
:10680800022287490EE09DF81830022B16D0032B80
:1068180064D0012B0ED1BDF81B30002B00F06C8129
:10682800814912220DF11500FFF74CFF0446062C92
:1068380040F0268105A8FEF755FF0EE1BDF81B6064
:10684800002E00F05981092E28BF0926FEF70CFFFB
:106858004FF00909044654BB714C7449324620462E
:1068680005F0ACF92771A4F80290FEF7E5FE18B11F
:10687800E37943F02003E371FEF7F6FE6C4BC3E9BE
:1068880000049E60BDF81B20DA60002000F0EEF9DD
:1068980068498020FEF74EFF044620B966498020EB
:1068A800FFF7FEFE0446002000F0E2F9BFE7CDF84E
:1068B8000C804FF0000A63680022D3F804B0214628
:1068C800012303A8D84730B9237A1F442368D14449
:1068D8001C68FFB2BFE70AF1010AECE7BDF81B30FC
:1068E800002B00F00981BDF819109DF8170000F081
:1068F8008DF9014600289DD0027893E7464A127820
:10690800052A03D1464A137001227AE7042A91D155
:10691800434B83F80080F7E703290FD009292BD0D0
:10692800012987D1BDF81730012B83D1FEF784FEEA
:1069380060B13C4A137823F002030FE0BDF817302A
:10694800012B7FF477AFFEF777FE18B90F2401F01B
:106958001BFCE4E0334A137843F0020313702B68FE
:10696800002B00F0C98001F019FC044600287FF4D0
:1069780000AF01F0C9FBD2E0274B1B78043B012B89
:1069880001D90824E3E79DF817302BB9FEF750FF2B
:106998000420FFF75BFEE2E7012B57D1FEF734FF37
:1069A8000520F6E79DF8190003A9FEF763FE0646E1
:1069B80008B91024CBE79DF80C1005AAFEF772FE63
:1069C800062804465CD19DF8152012F0600FBED150
:1069D800114B9DF80C1018789DF81630D2092DD05F
:1069E8007BB10A2BB3D10528CBD130460192FEF7F3
:1069F80005FF0B49019A08700DF11500FFF762FEBB
:106A08002BE00528BDD106490B800222F4E700BF20
:106A1800942A0020007002406C2A00208C2A002052
:106A2800982A0020882A00202CC40F000DC40F00CB
:106A3800702A002048C40F0040C40F000B2B86D1D9
:106A480005289ED1BDF81730FF2B01D907247EE712
:106A58009DF817203046FEF783FE044610E09DF8A7
:106A68001900030706D19DF8153013F0600F0BD0FD
:106A780006246CE705A9FEF718FE06280446F2D09E
:106A8800002C3FF46CAF62E79DF81620344B9DF85C
:106A980019401B78012A1DD0032A0CD0002AE7D1FF
:106AA800052B02D027077FF46CAF204601F0F4FADB
:106AB8002C490880A9E72607DAD4BDF81720002A50
:106AC800D6D12007D4D0052B7FF45BAF204601F048
:106AD800D7FA44E72107CBD4BDF81720002AC7D13D
:106AE8002207C5D0052B7FF44CAF204601F0D6FA1B
:106AF800204601F087FD32E701F03CFB39E6002033
:106B0800FFF7A4FD35E64FF08043D3F8384414F07E
:106B1800010401D00220F3E70120FFF797FD20468A
:106B280009B0BDE8F08F0120EAE7C87803283FF4F0
:106B380016AE0D4E33688BB10022716832609847EB
:106B4800044600287FF403AF336823B1AB78002BE9
:106B58007FF40FAE0DE701F00DFBE0E70E24F6E63B
:106B68006C2A0020982A00208C2A002008B1402393
:106B780003600148704700BF982A002070B54FF0A5
:106B8800805286B0D2F8A830D2F8A42000926FEADA
:106B980083436FEA93430B4A0B4E9BB20D2102A825
:106BA80004F0E7FF02AD002402A805F063F8844270
:106BB80001D306B070BD15F8013B06F8013B01345E
:106BC800F2E700BF50C40F00D82A002010B50E4BC2
:106BD80053F8204023780BB9A01C10BD0020FFF704
:106BE800C5FF013C00235A1CA15C39B9DBB2013353
:106BF8005B00DBB243F440730380EEE7D3B220F8C6
:106C080013101346EFE700BFA8C40F00034608B9E6
:106C1800FFF7DCBF012807D0022805D0032803D0DE
:106C2800042801D0052809D1054800EB430358780A
:106C380020B1044B53F82030002BE9D100207047D5
:106C4800C0C40F00A8C40F0072B6024A136801330B
:106C580013607047E82A0020034A1368013B136059
:106C680003B962B6704700BFE82A0020FFF7ECBFFF
:106C7800FFF7F2BF30B53AB11368DB430A4D014460
:106C8800814204D1D84330BD4FF0FF33F6E710F806
:106C9800012B5340082213F0010418BF2C46013A77
:106CA80084EA5303F7D1EBE72083B8ED10B5034628
:106CB80053E8000F0A4643E8002494F0000FF7D188
:106CC80010BD10B5034653E8000F40EA010243E83F
:106CD800002494F0000FF6D110BD10B5034653E818
:106CE800000F00EA010243E8002494F0000FF6D1F7
:106CF80010BD10B5034653E8002F02EA010043E82F
:106D0800000494F0000FF6D110BD0121FFF7D9BFA0
:106D18000021FFF7E2BF0021FFF7EBBF10B590B1EC
:106D2800D0E9012301689B1ADBB20A60013BDBB2A0
:106D3800FF2B026802D10020107110BD11684C1C95
:106D480014600B70F2E70E20F7E738B50446002010
:106D5800FFF78CFF226863681168994213D9481EAF
:106D6800106011F8013CE568218A01FB0355A3680E
:106D780011791B1ADBB2994200D213710020FFF778
:106D880077FF284638BD0025F8E738B505460020C6
:106D98000C46FFF76BFF2A681368591C1160E968F5
:106DA800641A298AB4FBF1F41C70BDE8384000204D
:106DB800FFF75EBF0B6801601146184710B40468FE
:106DC800E468A4465DF8044B604710B4046824697D
:106DD800A4465DF8044B604770B550B90E4D0F4C92
:106DE8000026641B1423B4FBF3F4B44208D100203A
:106DF80010E00368002BF1D0BDE87040DB6918474C
:106E08002B6813B901361435EFE7DB692846984734
:106E18000028F7D070BD00BF080000201C0000202B
:106E2800014B436000207047CCC40F0008467047F0
:106E380000207047024B1868003818BF01207047BF
:106E4800EC2A002008B50248FFF765FF002008BDBE
:106E5800EC2A002008B510461A4604F0AFFE0020C0
:106E680008BD00002DE9F041804686B011480F4664
:106E780016461D46FFF749FF0446C8B9AA08314619
:106E8800384600F093F90B48FFF745FFD8F808306B
:106E980053B101228DF800200C9A0592CDE90147E3
:106EA800CDE9036568469847204606B0BDE8F081FD
:106EB8001124F9E7EC2A00202DE9F043814687B038
:106EC80014480E4615469846FFF71FFF0446F0B9CA
:106ED8000746BD4215D10F48FFF71DFFD9F8083006
:106EE8005BB102228DF800200022CDE90126CDE910
:106EF8000325CDF8148068469847204607B0BDE8BA
:106F0800F08306EB073000F023F90137E1E711249D
:106F1800F3E700BFEC2A0020F0B578B371B36BB388
:106F280000241C608E18DB274FF0DC0C4FF0DD0EC0
:106F38001A688E4202F1010400EB020504D11C60BC
:106F4800C0232B700020F0BD0D78C02D05D0DB2D9F
:106F58000CD01C600C78845406E01C6087541A68B6
:106F6800541C1C6000F802C00131E1E71C60855424
:106F78001A68541C1C6000F802E0F5E70E20E2E7EE
:106F880010B580B3D0E902239A422ED00378012BA2
:106F98000FD0022B21D053B9C02928D0DB2902D128
:106FA8000123037003E04368541C84609954112042
:106FB80006E0DC2905D0DD290AD0022303700B2066
:106FC80010BD511C43688160C02199540023E8E733
:106FD800511C81604368DB21F7E7C029E7D1002312
:106FE80003708360E3E70E20EAE70420E8E7184629
:106FF800E6E7000038B5074C051E04F1080318BF82
:107008001C4623682BB11A6822605B68284698479B
:10701800F7E738BDF82A002020B9054B01225A703D
:10702800FFF7E8BF012802D1014A9070F8E77047DE
:10703800F02A002038B50C4C23789BB90B486360C4
:10704800A3602361E36000F0E7F8054600F0F0F87C
:1070580001232370064BD3F800340BB10123A3702E
:10706800284638BD8525F5E7F02A002021700F0055
:107078000000014038B5134C6378054603F0FF0063
:1070880073B115B16B68002098470020FFF7EEFD3B
:107098006368013363600020BDE83840FFF7E8BD4E
:1070A800FFF7E4FD25B1A26813463BB92A60A56045
:1070B8006368002BECD100F0D1F8E9E79D42F7D0E6
:1070C8001B68F2E7F02A002038B5084C0020FFF7CB
:1070D800CDFD6368013B6360656815B900F0CAF8C7
:1070E8006570BDE838400020FFF7C2BDF02A0020D7
:1070F80010B5074C23784BB9064B002808BF184633
:1071080000F008F908B90123237010BD8520FCE7B9
:10711800042B0020F8C40F0008B500F02AF9BDE8D8
:10712800084000F02DB907B50190FFF7F5FF019869
:1071380000F012F900F016F9002003B05DF804FB26
:10714800024AD2F80034002BFBD0704700E001401F
:107158000A4908B50223C1F80435BFF36F8FBFF39E
:107168004F8FC1F80805FFF7EBFF0023C1F804357E
:10717800BFF36F8FBFF34F8F08BD00BF00E0014022
:1071880010B5094C0123C4F80435BFF36F8FBFF362
:107198004F8F0160FFF7D4FF0023C4F80435BFF315
:1071A8006F8FBFF34F8F10BD00E0014070B50E4EDA
:1071B80001231546C6F80435BFF36F8FBFF34F8F11
:1071C8000024AC4207D10023C6F80435BFF36F8F03
:1071D800BFF34F8F70BD51F8243040F82430FFF7CB
:1071E800AFFF0134EDE700BF00E0014010B50346F2
:1071F80053E8000F00EA010243E8002494F0000F6E
:10720800F6D110BD00F18040002382B0036003680E
:107218000193019B02B07047044A137923B90121F5
:10722800106091801846704785207047082B002011
:10723800084B1A68D20704D4C02283F8002301221D
:107248001A604FF080420123C2F81835024A1370C1
:10725800704700BF00E100E0102B002008B54FF494
:107268008070FFF7CFFF4FF080430122C3F804235B
:107278001A6008BD4FF08042012108B54FF48070B4
:10728800C2F80813FFF7BEFF5160D2F80C3403F0C0
:107298000113B3F1011FF8D0014B00225A7108BD48
:1072A800082B00204FF0804110B5D1F8003163B1B0
:1072B8004FF48070FFF7A6FF0D4B58790122C1F8F3
:1072C800082310B95A711B6898474FF08042D2F8CA
:1072D800043163B14FF48270FFF794FF0223C2F8C0
:1072E8000833034BBDE810401B680120184710BD48
:1072F800082B002000F1804382B01A68002A14BFCE
:107308000120002004D000221A601B680193019B11
:1073180002B070470E4A1378C3B903784FF0804122
:10732800C3F34003C1F88035037803F00103C1F8C3
:107338007835084B1968C90704D4C02183F80013AD
:1073480001211960012313700020704785207047C0
:10735800202B002000E100E0014B02681A60704712
:107368001C2B00204FF080434FF46072C3F80423B5
:1073780070474FF080434FF46072C3F8082370479A
:10738800014B00221A6070471C2B00204FF08043ED
:1073980010B5D3F80443620707D54FF48470FFF79C
:1073A800A9FF10B11E4B1B689847A30608D54FF4D8
:1073B8008A70FFF79FFF18B11A4B00201B68984787
:1073C800600608D54FF48C70FFF794FF18B1154B81
:1073D80001201B689847210608D54FF48E70FFF7E7
:1073E80089FF18B1104B00201B689847E20508D5A3
:1073F8004FF49070FFF77EFF18B10B4B01201B680C
:107408009847A3050AD54FF49270FFF773FF28B188
:10741800054BBDE810401B680220184710BD00BF8F
:10742800142B0020182B00201C2B002008B5FFF778
:10743800ADFFBDE80840FFF735BF0000020713D4D1
:1074480000F00F0310F0800F084A0BBF03F5887394
:1074580003F5847302EB830352F8230008BF5868CE
:10746800431E584258417047002070470070024040
:1074780010F0080F074B06D0D3F8C00410F4803F73
:1074880018BF0020704700F00F0000F5947053F803
:1074980020007047007002404FF08053D3F830014D
:1074A800A0F1080358425841704700004FF080533C
:1074B800D3F83021082A06D1D3F83431052B04D863
:1074C800034AD05C7047002070470120704700BF16
:1074D800F9C40F0030B54C680D689C4229BFC0E95B
:1074E80000530021E41AED1832BFC0E900514C6086
:1074F8000D60934203D1201E18BF012030BD00202B
:10750800FCE74B6810B59A420C6828BF1A46C0E9D8
:107518000042981A0B6848601A4400380A6018BF7D
:10752800012010BD30B54C680B68A24228BF224626
:10753800002A14BF1D460025C0E90052A4EB02042E
:107548001A444C600A6014BF0120002030BD0000BE
:10755800054B10F0800FA3F1900208BF134600F00E
:107568000F0003EB00107047942C002010F0800FE0
:1075780014BF0023102300F00F00184470470000C8
:1075880008B5FFF789FF18B1034B0022C3F81C2C7C
:10759800024B00221A7008BD00700240222B002006
:1075A80007B5094A00231370084AADF8053013706F
:1075B8008DF8073001238DF80430054B01A81B68AE
:1075C800984703B05DF804FB212B0020282D0020EC
:1075D800242D002070470000F8B54B680B4F9342EC
:1075E8000C4628BF134606461A46096838461D4603
:1075F80004F0E4FA60682268401BC6E900752A4472
:1076080060600038226018BF0120F8BD2C2D0020D2
:10761800F8B54B68934228BF134606460D461C46EC
:107628008BB10A4F09681A46384604F0C7FA376022
:107638006B6874601B1B6B602B68201E23442B60D7
:1076480018BF0120F8BD0360F2E700BF2C2D002011
:1076580008B50020FFF70AFB0A4BD3F8001C0322E9
:1076680061B949F27531C3F8001CC3F8142DC3F889
:10767800001CBDE808400020FFF7FABAC3F8142D33
:10768800F7E700BF00E0064008B50020FFF7EEFA74
:107698000A4BD3F8001C61B949F27532C3F8002CC3
:1076A800C3F8141DC3F8002CBDE808400020FFF7FC
:1076B800DFBA0022C3F8142DF6E700BF00E0064049
:1076C80008B50146FFF75CFF0846FFF741FF827BDC
:1076D800032A0AD10846FFF749FF01218140BDE886
:1076E80008400448C943FFF781BD0368002BF1D067
:1076F80008BD00BF902B00208720FFF7E1BF862040
:10770800FFF7DEBF8520FFF7DBBF8420FFF7D8BF78
:107718008320FFF7D5BF8220FFF7D2BF8120FFF774
:10772800CFBF000008B5FFF72BFF084B93F89E204A
:10773800032A06D1BDE8084005486FF00101FFF7AC
:1077480055BDD3F89030002BF4D008BD042C002090
:10775800902B0020012273B502FA01F51E491F4E35
:107768000B6810F0800F43EA050304460B6027D02E
:1077780000F00F021A4B33F8123003F1804303F57F
:107788001C331A684AB100221A60BFF36F8FBFF327
:107798004F8F802811D0FFF793FF316829400AD115
:1077A80006238DF804308DF806408DF807100D4B30
:1077B80001A81B68984702B070BDFFF7B3FFECE75C
:1077C80033681D42F7D106238DF804308DF8060082
:1077D8008DF80720EBE700BF002C0020902B00203D
:1077E80008C50F00242D002008B5054B1A7810464F
:1077F800FFF7BCFEBDE8084001461046FFF7AABFE8
:10780800282D0020FFF78EBF07B500238DF8043020
:107818000B4BD3F82025ADF80620D3F8C034094A1D
:10782800002B13680CBF4FF480714FF001210B43FC
:107838001360054B01A81B68984703B05DF804FB6B
:1078480000700240002C0020242D002007B5FFF70F
:1078580097FE0D4B93F88E20032A11D0D3F8803071
:1078680073B90A486FF08071FFF7C0FC06238DF8E2
:1078780004300823ADF80630054B01A81B6898476B
:1078880003B05DF804FB00BF042C0020902B0020FF
:10789800242D002007B5FFF773FE114B93F81E2126
:1078A800032A07D10F486FF4807103B05DF804EB29
:1078B800FFF79CBCD3F8103173B90A486FF4807194
:1078C800FFF794FC06238DF804308823ADF80630C2
:1078D800054B01A81B68984703B05DF804FB00BF7F
:1078E800042C0020902B0020242D00202DE9F04F9F
:1078F8005D4E337885B0002B6DD15C4C5C4B1968BC
:107908002368194067D011F0012367D093FAA3F1D7
:10791800002966D0B1FA81F10F2964D9A1F11008C4
:107928005FFA88F84046FFF713FE4FF0010B4FFA55
:1079380088FA0BFA01F1BAF1000F81466FEA010BE0
:1079480054DA03688289416802A8984708B9C9F8D7
:107958000000FFF7A1FD18B1464B8222C3F81C2C8A
:1079680001232168039A3370D9F8083001EA0B0122
:107978001344BAF1000F2160C9F8083008F0080074
:1079880002993C4B08F00F085EDA002854D0C3F87F
:10799800A016C3F8A426042303EB880303F180434D
:1079A80003F51C3301221A60BFF36F8FBFF34F8FAB
:1079B800314B324A2F4913EA2A0338BF134633F8AA
:1079C800183003F1804303F51C331A681AB9D1F84B
:1079D8000021002AF9D005B0BDE8F08F91FAA1F195
:1079E80096E720219AE741F080089BE74046FFF799
:1079F8003FFDB9F80C20D9F80410D9F80050034617
:107A0800074602A8A847029A002A9FD0039A9742DD
:107A18009CD9022789F80E7059461548FFF7E6FBEE
:107A280006238DF80430164B8DF806801B688DF8F8
:107A3800077001A8984761E7142000FB0833C3F8D2
:107A48000016C3F80426A6E728B1C3F8A017C3F8A0
:107A5800A4272823A0E7142000FB0833C3F8001745
:107A6800C3F80427F5E700BF222B0020002C0020D4
:107A7800902B00200070024008C50F0024C50F009D
:107A8800242D002037B50446FFF77AFD2046FFF77E
:107A98005FFD837B032B0DD12046FFF767FD012196
:107AA8008140C9430F48FFF7A1FB03B0BDE8304050
:107AB800FFF71CBF0568002DF7D12046FFF756FDDC
:107AC80001218140C9430748FFF790FB06238DF841
:107AD8000430054B8DF806401B688DF8075001A847
:107AE8009847E2E7902B0020242D00200720FFF77D
:107AF800C9BF0620FFF7C6BF0520FFF7C3BF042094
:107B0800FFF7C0BF0320FFF7BDBF0220FFF7BABFD2
:107B18000120FFF7B7BF000038B5134BD3F86C440A
:107B2800C3F86C44BFF36F8FBFF34F8F01251CB9A7
:107B3800BDE83840FFF7DABE94FAA4F171B1B1FAA2
:107B480081F30F2B19460BDDA1F11000C0B205FA25
:107B580001F324EA0304FFF7FDFDE8E72021F3E73A
:107B680043F08000F3E700BF00700240254B13B5D7
:107B7800D3F80044C3F80044BFF36F8FBFF34F8FAF
:107B8800BFF36F8FBFF34F8FE1050ED51E4B012258
:107B98001A700023ADF805308DF8073002238DF8F0
:107BA80004301A4B01A81B689847A2050DD5164A40
:107BB80000231370ADF805308DF8073003238DF8D6
:107BC8000430124B01A81B689847630518D50E4A64
:107BD8001378ABB1002313700A4A0121C2F80815C3
:107BE8009165BFF36F8FBFF34F8FADF805308DF8F8
:107BF800073004238DF80430044B01A81B6898470C
:107C080002B010BD00700240212B0020242D00205E
:107C1800024A00231360024A13707047242D002083
:107C2800232B002008B5454B4FF40062C3F800240D
:107C3800BFF36F8FBFF34F8FFFF738FC08B1FFF723
:107C480007FDFFF729FC98B10020FFF70FF83C4B20
:107C5800D3F8001CC022002967D149F27531C3F856
:107C6800001CC3F8142CC3F8001C0020FFF700F810
:107C7800324B0122C3F80025BFF36F8FBFF34F8F3C
:107C8800D3F800241205FBD54FF40062C3F8002492
:107C9800BFF36F8FBFF34F8FFFF7FEFB90B100204C
:107CA800FEF7E4FF264BD3F8001C002940D149F227
:107CB8007532C3F8002CC3F8141CC3F8002C00203C
:107CC800FEF7D6FFFFF7F2FB30B1FFF7DDFCFFF759
:107CD800EDFB08B1FFF7BCFCFFF7DEFB174B50B11B
:107CE80040F2E372C3F800284022C3F80428BFF327
:107CF8006F8FBFF34F8F00218022C3F81C25C3F874
:107D08003015104B40F2FF121A600F4B1960FFF745
:107D180037FC0E4B19700E4B02221A70FFF7C6FB88
:107D280050B1BDE80840FFF7AFBCC3F8142C9CE77E
:107D38000022C3F8142CC2E708BD00BF007002403F
:107D480000E00640002C0020902B0020282D002069
:107D5800232B00200C4B00221A700C4A0C4B0028D5
:107D680018BF13460B4AC2F804330B4BC02183F8E3
:107D78002713802159600123C2F80435BFF36F8FA0
:107D8800BFF34F8F704700BF212B00200714E0017D
:107D98000714C0010070024000E100E0024B1878AF
:107DA800003818BF01207047232B0020034B187898
:107DB800012894BF00200120704700BF232B00201A
:107DC80010B50020FEF752FF134B1B7803F0FF0499
:107DD800BBB1124AD2F82C35DBB10023C2F82C35DE
:107DE800FFF75AFB68B10E4BD3F8001CC02269B9E3
:107DF80049F27531C3F8001CC3F8142CC3F8001CF1
:107E080004460020FEF734FF204610BDC3F8142CAA
:107E1800F6E71C46F5E700BF212B00200070024062
:107E280000E00640024B034AC3F80823704700BF2E
:107E38000070024004148001024B034AC3F8042373
:107E4800704700BF0070024004148001014B0022FB
:107E58001A707047212B002008B5FFF779FB818144
:107E680008BD000073B51D4B1C78002C33D11C4A8B
:107E7800106001221A702546264615F0080F65F095
:107E88007F00C0B20CBF40214FF400710190FFF792
:107E9800E3FF0198FFF75CFB0135092D8673066047
:107EA8008660EAD1402100252046FFF7D5FF20460D
:107EB800FFF74EFB0134E4B2092C85730560856039
:107EC80002D1002002B070BD14F0080F14BF4FF4A7
:107ED80000714021E8E70820F4E700BF232B0020C9
:107EE800242D002008B5FFF733FB808908BD00006A
:107EF800064A10F0800F00F00F0314BFD2F81005E7
:107F0800D2F81405D84000F0010070470070024014
:107F18002DE9F047804600208A46FEF7A7FE18F0B4
:107F28000F0503D1294B1B7843454AD1284B294FCC
:107F38001C683E684046FFF719FBE443A4B24FF0C3
:107F48000109344309FA00F914EA09043BD140460F
:107F5800FFF7FEFA0C2218F0800F034602FB05F526
:107F68002BD01D4ADAF80010154401F06041DAF808
:107F78000820B1F1005F02F0010219D1B2B9174A25
:107F88001A609AE8070085E8070000229A609A7349
:107F98005D60134B46EA090680223E60C3F804215F
:107FA8000020FEF765FE2046BDE8F0870D4AE7E7AA
:107FB8000AB90D4AE4E70D4AE2E70D4A15440D4AAD
:107FC800DEE71024ECE71124EAE700BF282D0020A3
:107FD800002C0020902B0020942B00200B750F0004
:107FE80000E100E02D750F00E1750F0019760F0014
:107FF800242B0020DD740F002DE9F04107460020F6
:108008000E46FEF733FE3B0703D1174B1B78BB42E6
:1080180025D1164B16491C680D683846FFF7A6FA95
:10802800E443A4B201232C4303FA00F814EA080439
:1080380017D13846FFF78CFA3368036073684360DA
:108048000C4B846045EA0805802284730D60C3F8F0
:1080580004210020FEF70CFE2046BDE8F081102424
:10806800F7E71124F5E700BF282D0020002C002099
:10807800902B002000E100E0004870472C2D0020E4
:10808800044B40F48070C3F81805BFF36F8FBFF33B
:108098004F8F704700700240FFF7D0B9064BC3F806
:1080A8000C05BFF34F8F40F48070C3F80C05BFF385
:1080B8006F8FBFF34F8F70470070024010B50822D2
:1080C8000021044603F0A3FD0E4BD3F88024227050
:1080D800D3F884246270D3F88824D3F88C1442EA45
:1080E80001226280D3F89024D3F8941442EA012242
:1080F800A280D3F89824D3F89C3442EA0323E3807F
:1081080010BD00BF00700240034B0122DA64BFF3C8
:108118006F8FBFF34F8F70470070024013B5FFF7A2
:108128002FFA114B9A7B032A07D110486FF480313C
:1081380002B0BDE81040FFF759B81C687CB96FF46D
:1081480080310A48FFF752F806238DF80430084BAF
:10815800ADF806401B6801A8984702B010BD02B0F0
:10816800BDE81040FFF7D0BF042C0020902B002062
:10817800242D0020034B01221A65BFF36F8FBFF334
:108188004F8F704700700240034B01225A65BFF3BE
:108198006F8FBFF34F8F704700700240014B187804
:1081A800704700BF282D002010B504460020FEF7B8
:1081B8005DFD2046FFF7DAF90D4901220B6802FA46
:1081C80000F023EA000314F008020B600AD104F05F
:1081D8000F04084B04F5947443F82420BFF36F8F01
:1081E800BFF34F8FBDE810400020FEF741BD00BF30
:1081F800002C002000700240F7B504460020FEF76E
:1082080035FD2046FFF7A4F905462046FFF7AEF9ED
:10821800012214F0800F02FA00F22D4818D10368E9
:1082280032EA03010AD02046FFF7BEFF0323AB73EF
:10823800002003B0BDE8F040FEF71ABD23EA0203B0
:1082480029600360234B186820EA02001860EDE7F4
:10825800230715D4802C204B2ED004F00F0101F2F7
:10826800DA314900C3F80018D3F80418D3F80468C1
:10827800C9B241F002013143C3F80418D3F80438F5
:10828800144E0168336861EA03071742D0D01343DC
:1082980021EA02013360002301602B600323AB73E2
:1082A8008DF807300D4B8DF8064006221B688DF8B7
:1082B800042001A89847BBE740F2B471C3F800183E
:1082C800D3F80418D3F80468C9B241F00401D2E71E
:1082D800902B0020002C002000700240242D00204C
:1082E800FFF78ABF73B5184B184CD3F8805423682E
:1082F800174EDA43174B31781B6892B208461A4377
:10830800FFF734F9012303FA00F0104202D00846BF
:10831800FFF772FF6FF0011105F080050D48357009
:10832800FEF764FF236843F0010323600023ADF8E0
:1083380005308DF8073005238DF80430064B01A869
:108348001B68984702B070BD00700240002C0020E6
:10835800282D0020902B0020242D00201C4BD3F822
:10836800041300232DE9F04101241D4671B9194F6A
:1083780003F4000623F400044FF00108D4B9FFF712
:10838800B5FA1EB3BDE8F041FFF7ACBF91FAA1F210
:108398001148B2FA82F29600304404FA02F20668F2
:1083A8002EB10560BFF36F8FBFF34F8F134321EAE0
:1083B8000201DBE794FAA4F5B5FA85F557F82530FC
:1083C80008FA05F5984724EA0504D7E7BDE8F081DF
:1083D8000070024038C50F0000710240F8B5134E16
:1083E800134B34681B68240C24041C4301271CB954
:1083F80040F2FF133360F8BD94FAA4F585B1B5FADD
:1084080085F30F2B1D460DDDA5F11000C0B2030743
:1084180001D4FFF7F1FE07FA05F524EA0504E6E7BB
:108428002025F1E743F08000F1E700BF002C002091
:10843800902B002038B50E4C8025C4F88451636811
:108448001B0613D5FFF7CAFF0A4B0022C3F8042501
:10845800BFF36F8FBFF34F8FC4F88450BFF34F8FB4
:10846800BFF36F8F4FF0FF32C3F8082338BD00BF4A
:1084780000E100E00070024008B5FFF7DBFF094BA0
:10848800D3F80423C3F808230022C3F80025BFF358
:108498006F8FBFF34F8FFFF773F8034B01221A70EA
:1084A80008BD00BF00700240232B002010B500203B
:1084B800FEF7DCFB0E4B1B7803F0FF042BB90024FE
:1084C8000020FEF7D5FB204610BDFFF787FF094ABD
:1084D800D2F8003413F40073F1D10121C2F82C153D
:1084E800D2F80014890544BFC2F82C351C46E7E7CA
:1084F800212B00200070024010B50446FFF77CFED7
:10850800134A04F00F0064B2002C4FF00103B4BF0B
:10851800D2F81015D2F8141503FA00F36FEA030322
:10852800B5BF0B400B40C2F81035C2F81435BFF385
:108538006F8FBFF34F8F074A074B13EA240338BFE7
:1085480013461A5C01239340014AC2F8083310BD50
:10855800007002401AC50F00FFC40F0038B5254A45
:10856800254B45B2002DA8BF134600F00F01044665
:10857800585C224A4FF0010303FA00F0C2F80403E2
:108588002ADAD2F81005C840C00731D4D2F810054D
:108598008B400343C2F81035BFF36F8FBFF34F8F83
:1085A80031B3002D24DB14F0080521D12846FEF74D
:1085B8005DFB2046FFF7F8FD2046FEF7D7FF104980
:1085C80001220B6802FA00F023EA00030B60284638
:1085D800BDE83840FEF74CBBD2F81405C840C007C8
:1085E80006D4D2F814058B400343C2F81435D3E7F8
:1085F80038BD00BF1AC50F00FFC40F00007002404D
:10860800902B0020030610B5044605D4FEF716FF8C
:1086180010B12046FFF7C8FD034BC3F81845BFF358
:108628006F8FBFF34F8F10BD0070024028B139B172
:108638000023C1E900301846704748F210507047CF
:1086480048F21350704730B1036848F240508B42EB
:1086580008BF0020704748F21050704728B148F210
:108668001150914208BF0020704748F210507047DF
:1086780070B506460C461D46FFF7D8FF50B9B379CA
:108688004AB1AB420AD111462046FCF713FC08B99F
:10869800044B236070BD48F21050FBE748F21150BC
:1086A800F8E700BF7052464D2DE9F0470C460546E5
:1086B80011492046DDE9088916461F46FFF7C3FF22
:1086C800A8B963685A79494652004046FFF7C6FF81
:1086D80068B956B16DB1CDF820803B463246214687
:1086E8002846BDE8F047FCF7F5BB48F21050BDE856
:1086F800F08748F21550FAE77052464D10B5044617
:1087080038B149B10B684160984708B9044B2360F8
:1087180010BD48F20150FBE748F21050F8E700BFDF
:108728006E524648F0B4134648B10768094EB7423E
:108738000AD161B12AB14368F0BC5B68184748F2B6
:1087480001531846F0BC704748F20253F9E748F263
:108758001053F6E76E524648F0B460B107680C4E05
:10876800B7420CD171B143681568DC68A5420CD3D7
:10877800F0BC9B68184748F20150F0BC704748F2BB
:108788000250FAE748F21350F7E748F21450F4E7BA
:108798006E524648F7B50446DDE908671546019369
:1087A800FFF7ACFF68B9019A29462046FFF7BAFFE0
:1087B80038B93A463146204603B0BDE8F040FFF7E5
:1087C800CBBF03B0F0BD0000F8B50A4F0A4C0B4E02
:1087D800E41B0123E40833700025A54203D10223DA
:1087E80033700020F8BD57F8353098470028F9D184
:1087F8000135F2E714C30F001CC30F006C2D0020D5
:1088080001390144814200D2704703780A7800F8A0
:10881800012B01F80139F5E7013A02440139824296
:1088280000D2704711F8013F02F80139F7E770B537
:1088380016460D46FFF7F0FF3246A9193044BDE849
:108848007040FFF7E9BF38B50D460446FFF7D8FF7B
:1088580029466019BDE83840FFF7D2BFBFF34F8FF4
:108868000549064BCA6802F4E0621343CB60BFF3C4
:108878004F8F00BFFDE700BF00ED00E00400FA05E0
:10888800704708B5FFF7EAFF08B500F065FB4FF43D
:108898008051002000F03CF908B1FFF7DFFF0548E0
:1088A800C0F57E2100F034F90028F6D1024800F026
:1088B80053F8F2E700400F0089880F00014B0122AE
:1088C8001A70704790310020BFF34F8F0549064B4F
:1088D800CA6802F4E0621343CB60BFF34F8F00BF56
:1088E800FDE700BF00ED00E00400FA05024B034875
:1088F80000221A7001F030B890310020D1880F00A2
:10890800042810B5044609D8022811D816D00D4BF2
:108918001B68B3B12046BDE810401847831F012BE0
:10892800F5D8094B094800221A7001F015F8EEE74E
:1089380007494FF4701000F0EDF9E8E700F058FF30
:10894800E5E710BD9431002090310020D1880F0058
:10895800F5880F000020704738B5574B1860002085
:1089680001F010F80446002840F0A08000F09EFABC
:10897800012800F09680022800F09A80002840F034
:1089880095804FF08043D3F8004414F4803442D0EB
:108998004FF48032C3F800240446484D2B6A012B5B
:1089A80047D04FF4701400F01BFB454A20211820D3
:1089B800FCF7AAFB08B1FFF764FF4FF08043D3F838
:1089C8001C2502F0F902B12A02BFD3F81C2502F0D7
:1089D8004E02C3F81C25394B9A6D012A06D1002096
:1089E800986500F08FFF08B1FFF74BFFFFF7B2FF64
:1089F80000285BD12046334900F08CF9324800F05A
:108A080049FC002852D100F011FBFCF703FC20BF01
:108A180040BF20BFF7E7D3F8202502F0F902A92AC2
:108A280003BFD3F8202502F05602C3F820250124FD
:108A3800B3E74FF440535A68244B9A4209D001F0E7
:108A480025F8AA69014694B1214801F0D5FA90B9F0
:108A5800A7E76A6B1CB995F86032012BEFD01D4867
:108A68004FF4805101F0C8FA0028E8D199E795F849
:108A7800A132012BE8D14FF08043D3F81C3503F025
:108A8800F903B12B8DD0AB6D012B8AD000F087FF95
:108A980060B9114B1870114800F05EFF00F022F821
:108AA80004E00D4B0E481C7000F056FF032038BD43
:108AB8004FF4A02477E700BF94310020B838002095
:108AC800702D0020F5880F0009890F00DBE5B151F2
:108AD800593B0020183B002090310020C5880F002A
:108AE800D1880F0008B5074B4FF0FF32C3F880203C
:108AF800C3F8802100F029FCBDE808404FF48050FD
:108B080000F028B800E100E080F30888084700007A
:108B180070B50546C1F30B00A8B9B5F57F2F12D87B
:108B28000B4E3268072A10D8130103F1804404F56C
:108B3800F0340132C4F80058C4F804180221C4F80B
:108B48000818326070BD0720FCE70420FAE700BF70
:108B58009831002010B504461448C0F57F21FFF76E
:108B6800D7FF08B1FFF78DFE00F090FF104B9B690F
:108B780003F6FF7323F47F6323F00F031918002013
:108B8800FFF7C6FF08B1FFF77CFEEFF3058300236C
:108B9800D4E9000183F3148883F3108883F31188E0
:108BA80083F31388BDE81040FFF7AEBF00400F0005
:108BB800B83800201FB518490B7853BB4FF08043D5
:108BC800A024D3F81824D2035CBF01229A60134B67
:108BD8000022C3F80021D3F8000103900398C3F8DA
:108BE8004021D3F8400102900298C3F84421D3F8F9
:108BF8004401019001980A4880F8244310244460F5
:108C08000220C3F8082501229A601A60C3F80403F9
:108C18000A7004B010BD00BFA0310020004002401F
:108C280000E100E037B56FF07F42154C057BD4F8C2
:108C380004358A4228BF0A46891A13444A1E942AD0
:108C480023F07F4305F5A8729BBF963B96314160A0
:108C5800416044F822300B4B4FF4F86043F00103B5
:108C68009847094BAA00134400221A601B68019315
:108C7800019B4FF48033AB40C4F8043303B030BDDC
:108C880000400240E0C50F00404102401C4BD3F8B1
:108C980004212DE9F34152B11A490A6801320A60E8
:108CA8000022C3F80421D3F804310093009B164C2A
:108CB800164DDFF84C80164E00272B6873B12F60D5
:108CC8002B68227B0193019B4FF480339340C8F8B3
:108CD8000833616851B12046FFF7A4FF0435B54257
:108CE80004F11004E9D102B0BDE8F081A16811B126
:108CF8002046FFF797FF2368002BEFD09847EDE752
:108D0800004002409C3100202800002040410240E1
:108D18004841024070B50B4B1D682A7B4FF48033E5
:108D28009340094A0E46C2F80833044640B1FFF79B
:108D380041FF2E6021462846BDE87040FFF772BF0C
:108D480070BD00BF480000200040024070B5074BCE
:108D58001D6804460E46A860FFF72CFF2E602146CA
:108D68002846BDE87040FFF75DBF00BF4C000020FB
:108D7800014B01221A707047A13100202DE9F74FED
:108D880006468846A8EB06052D0B02F6FF77144623
:108D980000F026F9082D28BF08252B03DFF868B056
:108DA80001933F0B0CB9234629E0BD422CBFBA46BC
:108DB800AA464FF000025146304634BFDDF8049011
:108DC800A14600F099FA0346C8B909F1030222F056
:108DD80003024146304600F081FA034678B9DBF8D1
:108DE80030304B44CBF8303000F0BCFDA7EB0A071D
:108DF800A4EB09044E44C84403460028D2D01846C0
:108E080003B0BDE8F08F00BFB838002010B500F0FF
:108E180063FE124A916C01F500535C68104B9C424A
:108E280018D1D2E90C32934216D0884204D1BDE859
:108E38001040002000F096BDD21A02F6FF7222F40C
:108E48007F6222F00F0219441844FFF797FF0028A9
:108E5800EDD010BD0320FCE70020FAE7B838002069
:108E6800DBE5B15138B50F4BDA6A5D6A9C6CAC2A08
:108E780010D15B6B1C44ED1A0B482A46214602F0C0
:108E880041FE68B100F0D2F829462046BDE83840D6
:108E980000F04ABA002CEFD100F00CFE0446EBE7D4
:108EA80038BD00BFB838002000400F0070B5264C10
:108EB800E36AAA2B37D005D8012B0BD0A52B2ED0CF
:108EC800002070BDAC2BFBD1FFF7A0FF48BBFFF71C
:108ED800C9FF26E0A66C656A00F0D8FD864229D154
:108EE80000F0D4FD00222946FDF7C4FEA36A98428B
:108EF80002BF0123C4E90703A5610025134800F058
:108F080095FD134B134800221A7000F02BFD68B929
:108F180075B1236A012B14BF01200220D1E7FFF7A6
:108F280075FF0125EAE7FFF79DFFE6E70320C8E79D
:108F38000120C6E7236BEA1AF1181844FFF71EFF51
:108F48000028DAD1CCE700BFB8380020DC38002090
:108F5800A1310020798D0F0010B50024D4F8F83F16
:108F6800013304D1084940F6F870FEF709F9D4F83E
:108F7800FC3F013307D1BDE810404FF47E2140F695
:108F8800FC70FEF7FDB810BD00400F000A4AD2F889
:108F980000347BB109480023D2F80815D940C90725
:108FA80048BF03F5C07103F1010348BF42F821002F
:108FB800072BF1D1704700BF000001403546526EC3
:108FC800FFF7E4BF054B002282B0C3F80021D3F8B5
:108FD80000310193019B02B0704700BF00000140BF
:108FE80038B50E4D2B78BBB90D4BD3F800248AB198
:108FF800D3F80445FFF7CAFF40F61650A042B8BFA1
:1090080020460849A0F54860FFF7A0FE064B4FF43C
:1090180080321A6001232B7038BD00BFA2310020B6
:1090280000000140C98F0F0000E100E0034BD3F8B6
:1090380000340BB1FFF7AABF704700BF0000014022
:109048004FF08053D3F83001A0F10803584258413B
:10905800704700004FF08053D3F83021082A06D11A
:10906800D3F83431052B02D8024AD05C704700206F
:10907800704700BFECC50F00024AD2F80034002B3D
:10908800FBD0704700E0014010B5FFF7D9FF40B1B1
:109098004FF080430022C3F80C21C3F81021C3F815
:1090A8003825FFF7CDFF002846D04FF08052654B9A
:1090B800D2F80414C3F82015D2F80814C3F82415FC
:1090C800D2F80C14C3F82815D2F81014C3F82C15CC
:1090D800D2F81414C3F83015D2F81814C3F834159C
:1090E800D2F81C14C3F84015D2F82014C3F844155C
:1090F800D2F82414C3F84815D2F82814C3F84C152C
:10910800D2F82C14C3F85015D2F83014C3F85415FB
:10911800D2F83414C3F86015D2F83814C3F86415BB
:10912800D2F83C14C3F86815D2F84014C3F86C158B
:10913800D2F84424C3F87025FFF78CFF18B1424BCE
:10914800424AC3F88C26FFF785FF18B1404BFB2233
:10915800C3F81825FFF77EFF70B14FF080414FF03C
:109168008053D1F8E42ED3F8583222F00F0203F0DE
:109178000F031343C1F8E43EFFF76CFF20B1354BF2
:109188004FF40072C3F84026FFF75AFF48B14FF07A
:109198008043D3F80024D20744BF6FF00102C3F81C
:1091A80000242D4AD2F8883043F47003C2F888307E
:1091B800BFF34F8FBFF36F8F4FF08053D3F8302139
:1091C800082A0ED1D3F83431052B02D8234AD35CB0
:1091D8003BB14FF01023D3F808224FF08043C3F877
:1091E80058254FF01023D3F80022002A03DBD3F8C8
:1091F8000432002B22DA1A4901234FF01020C1F85B
:1092080004351224FFF738FFC0F80042FFF734FF97
:10921800C0F80442FFF730FF0023C1F80435FFF718
:109228002BFFBFF34F8F0C490E4BCA6802F4E06264
:109238001343CB60BFF34F8F00BFFDE70A4B0B4AC8
:109248001A6010BD00C00040005000404881030073
:1092580000F000400090024000ED00E0E6C50F007D
:1092680000E001400400FA05500000200090D003FF
:10927800831F012B10B5044602D8002000F0BEFB66
:10928800034B1B681BB12046BDE81040184710BDB2
:10929800A431002008B5074B18600020FFF7E8FF4D
:1092A800054800F093FB20B9BDE80840024800F0EB
:1092B80053BA08BDA431002079920F0043690BB15D
:1092C800C068184770470000024903480022FDF7AC
:1092D80071BD00BFD8C40F000800002007B5009377
:1092E80013460A4601460348FDF768FD03B05DF8DA
:1092F80004FB00BF0800002013460A460146014847
:10930800FDF763BD08000020014B18700B20704763
:10931800A8310020024B002218781A70704700BF4D
:10932800A831002018DF704730B585B005461022F7
:109338000C466846002102F06AFCA40868460195BC
:109348000294FFF7EFFF05B030BD30B585B00623B6
:1093580000244FF480556846CDE90035CDE9024434
:10936800FFF7E0FF072802BF4FF0005320461D60BB
:1093780005B030BD014B06201B681847B4310020EA
:109388000A2803D90B38C0B2FFF7BEBF70470000E8
:1093980010B5044686B00020FDF71EFD014638B121
:1093A800174A1821204606B0BDE81040FBF7D0BE8A
:1093B8001822684602F02BFC0423124A8DF800306C
:1093C800114B116D1B68994212D1104B186800F0AF
:1093D800BDFF8DF80100FFF7D3FFD4E901138DF825
:1093E8000100684698470A4800F0BCFA06B010BD6C
:1093F80001238DF801306846D4E901139847F5E751
:1094080099930F00B8380020AC310020B03100200B
:109418007D930F00F0B5044687B0182200216846F6
:1094280002F0F5FB23788DF8003001228DF8012039
:109438000C2B00F28181DFE813F00D0077000F009C
:10944800770077007F0177006E0077006C001C00C2
:109458002F0072008DF80420D4E90113684698475C
:109468009DF80130012B00F05C819D4B05201B68A5
:1094780056E14FF08053D3F800210192D3F804212C
:109488000292D3F80C2192020492D3F8102192028E
:1094980003921B690593DFE74FF44053914D5868D9
:1094A80091492E6A227C884214BF01230223012E8F
:1094B80008BF013352B902238DF80430EB680293D8
:1094C8008A4B0393C3F57E230493C5E7012A10D181
:1094D80088420ED14FF440531A78142A8CBF5B6926
:1094E800002302934FF4805303934FF440539B6837
:1094F800EAE79A4209D201238DF80430AB68029357
:1095080000F0E8FAAB690390DEE7FF238DF804303A
:10951800A2E7237CFAE7238AADF804309CE7704B76
:1095280007201B68984797E7062B714A01D0012B43
:1095380001D1216911701178012904D0022957D06D
:10954800002313709AE0013B072B85D801A252F83B
:1095580023F000BF7D950F0061940F00ED950F007B
:10956800BD950F0061940F00E7950F0061940F00FF
:1095780095950F005A4B03201B689847606900F0C7
:1095880083FCFFF7FDFE8DF8010065E7A18A2069DD
:1095980000F092FCFFF7F4FE524B8DF80100DA6BF5
:1095A8001B6C0293E3680192002B3FF455AF2069CE
:1095B800984751E74F49504800F0CCFCFFF7E0FED0
:1095C80001288DF801007FF447AF002000F0CAF9A8
:1095D80000283FF441AF0A238DF801303CE74FF4EF
:1095E800007303933F4BDA6B1B6C0192029333E7D2
:1095F800013B072B3FF630AF01A252F823F000BF22
:1096080029960F0061940F00DF960F0005970F0051
:1096180061940F002F970F0061940F0089960F0037
:1096280000F06AFC08B90823D6E762690AB903237F
:10963800D2E7C2F30B0333B12A4B2E495B6D09689D
:1096480013448B42F3D1B2F5805F01D90423C3E7F9
:10965800244B2849586D096815188D42E3D85A6477
:10966800DA6C9A6418651863234B1B680022012181
:109678001844FFF741FE00283FF4EEAE0523ABE7A0
:1096880000F03AFC0028CED0164DA18AD5E9143254
:109698009B1A6A6C0B449342C9D8174B2F6B1B68F3
:1096A800206905F148021F44FDF7E4FAE368A28A3D
:1096B800216906463846FFF711FE08B1E36876E7E8
:1096C800A38A2A6BAE641A442A632A6D029613444D
:1096D8002B650193C0E6034B9A6C02921B6DF8E769
:1096E800B4310020B8380020DBE5B15100400F004C
:1096F80054000020AC310020B03100200F4BD3E9DA
:109708001402596C821A8A428DD19A6C58650021CC
:1097180020465964DA64FFF73BFE094B1B680420B6
:10972800984707B0F0BD054B9A6C1B6D01934FF439
:109738008053029203938FE602234DE7B838002046
:10974800B431002083681BB1024A1821FBF700BD21
:10975800072070471D940F0038B50546C0B100209A
:10976800FFF7B2FD044648B900F080FB00F0C4FBE7
:1097780030B9084B00201D60FFF7C6FD204638BDF4
:109788000549064800F0E6FB0128F2D00324F5E776
:109798000724F3E7B4310020AC310020B0310020B9
:1097A8002DE9F04115464FF46072064688461F467B
:1097B80002F0A8F928B915B90020BDE8F081A8473A
:1097C800FAE7002201213046FFF796FD70B94FF401
:1097D80060724146384602F0F1F92B464FF4607248
:1097E80039463046FFF77AFD0028E5D00320E4E744
:1097F8002DE9F0413B4C236801335AD0002258210F
:10980800201DFDF737FA27683A1A57425741DFF803
:10981800F080354DD8F80060336801335ED00022FF
:109828005821301DFDF726FA3368834243D1746806
:10983800012C0AD00022C32106F51870FDF71AFA88
:10984800D6F85C42231A5C425C41B7B325492648E6
:109858004FF4607202F0B2F974B1D8F800102348DE
:109868005422043102F0AAF9D8F80010204840F236
:10987800C7225C3102F0A2F96C68012C2CD11D4979
:10988800402201F2C71002F099F91B491C2201F28B
:10989800C71002F093F9194985F8A1420023042260
:1098A80001F2862085F8603285F8E23202F086F906
:1098B80010E00027ABE70024C7E72CB1D8F8001068
:1098C80009484FF46072D5E707484FF460720021E9
:1098D80002F09DF902236B60BDE8F081002FF3D000
:1098E8000024B3E700F00F00B8380020BC3800208F
:1098F80014390020143A0020543A0020D4380020AB
:109908005800002070B50C4C054600225821201D37
:10991800FDF7B0F900222060C32104F51870FDF7A7
:10992800A9F92A46C4F85C022146044B0448BDE85C
:109938007040FFF735BF00BFB83800203835002029
:1099480000F00F0002460248024B0068FFF728BFEC
:1099580058000020B83100200149FFF7F3BF00BFCD
:1099680000F00F0038B505460020FFF7CBFF04468E
:1099780018B903492846FFF7E5FF204638BD00BF60
:10998800B838002010B5FFF79FFC044628B9FFF748
:109998002FFF2046FFF7E6FF00B1032010BD00208F
:1099A8007047000010B5084C4FF40072FF2104F115
:1099B8005C0002F02CF92022002104F1380002F0AA
:1099C80026F90023236310BDB8380020F8B5094FE5
:1099D800094CE41B0646E4080025A54201D10020F5
:1099E800F8BD57F83530304698470028F8D101358A
:1099F800F3E700BF1CC30F0024C30F00F8B5094EDE
:109A0800094CA41B0746E40800250436A54201D1E9
:109A18000020F8BD56F83530384698470028F8D168
:109A28000135F3E71CC30F0024C30F0008B50C224F
:109A3800002102F0ECF8024B00221A6308BD00BFB7
:109A4800B838002008B54FF440535A680C4B9A4276
:109A580014D10C490023042243F20400FFF73EFC12
:109A680060B9094A136A4FF44051012B08BF1062CC
:109A7800936989680B44A3F58053936108BD00BFBF
:109A8800DBE5B151A8C70F00B83800204FF44053A8
:109A9800074A5968914201BF986800F6FF7020F4A0
:109AA8007F6020F00F0018BF4FF48050704700BF50
:109AB800DBE5B15108B5FFF7E9FF054B9B69184491
:109AC80000F6FF7020F47F6020F00F0008BD00BF93
